:020000040800F2
:10000000A0050020450100087F1D0008591A0008BE
:100010007D1D0008EF0600082523000800000000F1
:10002000000000000000000000000000831D000828
:10003000F106000800000000811D0008851D000871
:100040005F0100085F0100085F0100085F01000810
:100050005F0100085F0100085F0100085F01000800
:100060005F0100085F0100085F0100085F010008F0
:100070005F0100085F0100085F0100085F010008E0
:100080005F0100085F0100085F0100085F010008D0
:100090005F0100085F0100085F0100085F010008C0
:1000A0005F0100085F0100085F0100085F010008B0
:1000B0005F0100085F0100085F0100085F010008A0
:1000C0005F0100085F0100085F0100085F01000890
:1000D0005F010008052300085F0100085F010008B8
:1000E0005F0100085F0100085F0100085F01000870
:1000F0005F0100085F0100085F0100085F01000860
:100100005F0100085F0100085F0100085F0100084F
:100110005F0100085F010008211E00085F01000860
:100120005F0100085F0100085F0100085F0100082F
:10013000DFF80CD000F0A8FA004800473D2D000879
:10014000A00500200648804706480047FEE7FEE776
:10015000FEE7FEE7FEE7FEE7FEE7FEE7FEE7FEE777
:10016000D91D000831010008202A04DB203A21FAB9
:1001700002F00021704721FA02F3D040C2F12002C0
:100180009140084319467047D2B201E000F8012BB4
:10019000491EFBD270470022F6E710B513460A4607
:1001A00004461946FFF7F0FF204610BD2DE9FE4F2B
:1001B00081EA030404F0004421F0004100944FF070
:1001C000000B23F0004350EA01045ED052EA03041E
:1001D0005BD0C3F30A54C1F30A552C44A4F2F334A0
:1001E0000194A0FB0254C1F3130141F48011C3F345
:1001F000130343F4801301FB024400FB034E840A03
:10020000970A44EA815447EA8357A4FB076802959A
:100210008D0A05FB07854FEA932C04FB0C54270538
:10022000029D4FEA065847EA1637B5EB08056EEB14
:10023000070C870E920E47EA811742EA8312A7FB4A
:100240000201B6EB0B0164EB00042B0D43EA0C3307
:100250005E1844EB1C50DA465146E7FB0201C5F339
:1002600013044FEA0B3343EA14534FEA0432019C60
:1002700043EA0603A4F10C040294009CCDE900B407
:1002800000F0DCF803B0BDE8F08F00200146F9E78C
:100290002DE9F04D81EA030404F0004B21F0004504
:1002A00014464FF0000A23F0004150EA050220D026
:1002B00054EA01021DD0C5F30A570246C5F31303E1
:1002C000C1F31300C1F30A5640F4801543F48013C0
:1002D000A7EB0608101BD64608F2FD3873EB0500A5
:1002E00002D308F1010801E092185B41B8F1000F58
:1002F00003DA00200146BDE8F08D00204FF48011A4
:10030000064684460EE0171B73EB050705D3121B48
:1003100063EB050306434CEA010C49084FEA300041
:1003200092185B4150EA0107EDD152EA030012D066
:1003300082EA040083EA0501084305D0101BAB41A3
:1003400006D20122002306E000224FF0004302E023
:100350006FF0010253101AEB06004CEB085110EB42
:100360000A0041EB0B01BDE8F04D00F058B80EB5A6
:10037000C10F80EAE0700844CA07002140F233430D
:100380008DE80E000A460B4600F058F803B000BD99
:1003900030B50B46014600202022012409E021FA55
:1003A00002F59D4205D303FA02F5491B04FA02F552
:1003B0002844151EA2F10102F1DC30BD2DE9F05FE9
:1003C0000546002092469B468846064681464024C4
:1003D0001BE02846414647462246FFF7C5FE5346E6
:1003E0005A46C01A914110D311461846224600F0D1
:1003F0005DF92D1A67EB01084F46224601200021C6
:1004000000F054F917EB00094E41201EA4F101043D
:10041000DFDC484631462A464346BDE8F09F10B52A
:10042000141E73F1000408DA401C41F10001921817
:100430005B411A4301D120F0010010BD2DE9F04DC0
:1004400092469B4611B1B1FA81F202E0B0FA80F215
:100450002032904600F02AF904460F4640EA0A008E
:1004600041EA0B0153465A46084313D0114653EA5A
:10047000010019D0C8F140025046FFF775FE05464D
:100480000E4650465946424600F010F9084305D042
:10049000012004E020463946BDE8F08D00200543E8
:1004A00046EAE0762C4337430A986305E40AA0EB5A
:1004B00008000022FD0A44EA47540A3002D5002011
:1004C0000146E9E7010510196941DDE90845001910
:1004D0006941BDE8F04DA2E72DE9FE4F804681EA73
:1004E0000300C00F0C46009021F0004123F00045AE
:1004F000B8EB0200A94105D24046214690461C4671
:100500000B46024623F00040104347D0270DC7F3A7
:100510000A00C3F30A510290401A019040286BDA96
:10052000C3F3130040F4801B0098924620B10023CF
:10053000D2EB030A63EB0B0B01985946C0F1400262
:10054000504600F0B3F806460D4650465946019A0B
:1005500000F0BBF810EB08006141002487EA11525B
:1005600084EAE7731A4340D0009A62B3019A012AE1
:100570004FEA075215DC001B61EB02014FF000420D
:1005800002EA0752CDE90042001C41F580113246D3
:100590002B46FFF753FF03B0BDE8F08F40462146DE
:1005A000F9E7001B61EB0201001C41F58013001804
:1005B0005B412018A2F5001747EB030140EAD57014
:1005C000B6196D4111E06D084FEA360645EAC0756F
:1005D0004FEA0752001B61EB0201001C41F580113C
:1005E00049084FEA30000019514132462B4603B00A
:1005F000BDE8F04FFFF713BF009801224000002331
:10060000D0EB020263EBE073009821464FEAE074FE
:10061000B8EB000061EB0401E9E783F000435BE71E
:1006200081F0004158E7C1F30A52C1F3130140F2CF
:10063000FF3341F480119A4202DA002001467047EC
:1006400040F233439A42A2F2334202DC5242FFF7B5
:100650008BBD00F02BB8000030B5041E71F1000412
:1006600004DB4FF00044404264EB0101141E73F1BF
:10067000000405DB1C464FF00043524263EB0403C9
:10068000994208BF904230BD064C074D06E0E06835
:1006900040F0010394E8070098471034AC42F6D3C9
:1006A000FFF74AFDAC2E0008CC2E0008202A04DB00
:1006B000203A00FA02F1002070479140C2F1200375
:1006C00020FA03F3194390407047202A06DBCB172A
:1006D000203A41FA02F043EAE07306E041FA02F3FD
:1006E000D040C2F120029140084319467047FEE70E
:1006F000704770472DE9F05F90F82110002402291F
:1007000003D004218163012485E001680A6822F096
:100710000E020A6001680A6822F001020A603F4E78
:100720003E4FB215DFF8F4C0DFF8F090DFF8ECA030
:10073000DFF8E8B0DFF8E4E00168783F1301150264
:10074000ACF1640CA9F15009AAF13C0AABF1280BF9
:10075000AEF1140E4FF48018B14227D9B9420ED031
:10076000614512D049451DD0514518D0594518D082
:10077000714501D1424615E0294EB14201D1012215
:1007800010E0274E1436B14201D110220AE0244E67
:100790002836B14206D0224A3C32914201D11A4653
:1007A00000E02A461E49091F0A602BE0B94213D017
:1007B000614517D0494522D051451DD059451DD01E
:1007C000714501D142461AE0B14202D14FF0807228
:1007D00015E0134EB14201D1012210E0104E143643
:1007E000B14201D110220AE00D4E2836B14206D0A6
:1007F0000B4A3C32914201D11A4600E02A46074991
:1008000080394A60012180F82110002180F82010F1
:10081000416B01B188472046BDE8F09F800002404F
:100820000804024070B5044600F014F90546601C47
:1008300002D004480078044400F00CF9401BA042A8
:10084000FAD370BD0C0000202DE9F84FDFF8C891F5
:10085000002409F1040A0AF1040B23460F270BF1C7
:10086000040ED1E00125A54006EA0502AA4276D190
:10087000DFF8A8C14E68A6EB0C0866452BD00DDC4E
:10088000032E34D005DC36B3012E19D0022E2FD121
:100890001BE0112E16D0122E2AD119E0B8F5881FB0
:1008A00019D006DCB8F5803F15D0B8F5801F1FD1F0
:1008B00011E0B8F5001F0ED0B8F5041F18D10AE0FA
:1008C000CB6815E0CB681B1D12E0CB6808330FE046
:1008D000CB680C330CE08B682BB1012B4FF0080375
:1008E00003D0456104E0042302E0056100E0002339
:1008F000FF2A01D8064601E000F104064FEA84050C
:1009000001D9A5F12005D6F8008007FA05FC28EAF0
:100910000C0803FA05F548EA0508C6F800804D689A
:10092000ED0070D53E4DAE6946F00106AE61AD6991
:1009300024F0030605F0010500953A4D06EB050C81
:10094000DCF80850A607360F07FA06F825EA08056E
:10095000DFF8D480404503D14FF0000825E052E095
:10096000DFF8C880404502D14FF001081DE0DFF8F4
:10097000C080404502D14FF0020816E0DFF8B48095
:10098000404502D14FF003080FE0DFF8AC8040454E
:1009900002D14FF0040808E0DFF8A080404502D102
:1009A0004FF0050801E04FF0060808FA06F848EA9B
:1009B0000508CCF808804D68D9F80060ED034D4675
:1009C00001D5164300E096432E604D68DAF80060CA
:1009D000AD03554601D5164300E096432E604D68A1
:1009E000DBF80060ED025D4601D5164300E096435A
:1009F0002E604D68DEF80060AD02754601D51643E5
:100A000000E096432E60641C0A681646E2407FF4BC
:100A100029AFBDE8F88F000000040140000011106C
:100A2000001002400000014000080140000C01409D
:100A3000001001400014014000180140001C01405A
:100A40008068084000D0012070470AB101617047FA
:100A50000904FBE701488068704700000C00002093
:100A60000248816802781144816070470C000020C0
:100A7000074810B5016841F010010160032000F043
:100A800075F8002000F006F800F024F8002010BDF2
:100A90000020024070B50D4D04464FF47A7128785D
:100AA000B1FBF0F00A490968B1FBF0F000F0ECFA94
:100AB00048B9102C07D200222146501E00F036F80B
:100AC00000206C6070BD012070BD00000C00002093
:100AD000180000200C4808B5816941F001018161CE
:100AE000816901F001010091C16941F08051C1614A
:100AF000C06900F0805000900448416821F0E06136
:100B000041F08061416008BD0010024000000140DA
:100B1000002809DB00F01F020121914040098000FC
:100B200000F1E020C0F8001170470000F0B40E4B57
:100B30001B680C46C3F30223C3F10705042D00D93B
:100B40000425191D072901D2002300E0DB1E012620
:100B500006FA05F1491E214099409E40761E164036
:100B60003143F0BC01F0F0BB0CED00E0064900F0B1
:100B7000070208684FF6FF03184040EA0220034AC4
:100B800010430860704700000CED00E00000FA051B
:100B90002DE9F0470F46050061D0434E306800F064
:100BA0000700B84209D2306820F0070038433060AF
:100BB000306800F00700B84251D128683B4C8107EB
:100BC00012D5400703D5606840F4E0606060287883
:100BD000000703D5606840F4605060606068A968F1
:100BE00020F0F000084360602878C00728D06868CB
:100BF000012810D02168022810D0890700292EDA98
:100C0000616821F0030101436160FFF723FF804623
:100C100041F288390DE021688903EFE78901EDE7AA
:100C2000FFF718FFA0EB0801494502D90320BDE8F2
:100C3000F0876068696800F00C00B0EB810FEFD1BD
:100C4000306800F00700B8420BD9306820F0070088
:100C500038433060306800F00700B84201D001200E
:100C6000E5E72878400705D56068E96820F4E0608A
:100C7000084360602878000706D56068296920F479
:100C8000605040EAC100606000F038F86168084ACE
:100C9000C1F30311515CC84006490860064800686A
:100CA000FFF7F8FE0020C2E70020024000100240DB
:100CB000942E000818000020100000200448054968
:100CC00000684968044AC1F30221515CC84070477A
:100CD0001800002000100240A42E00080448054916
:100CE00000684968044AC1F3C221515CC84070479A
:100CF0001800002000100240A42E000812A185B0A8
:100D00000FC98DE80F0014A0144A006804905168C0
:100D1000134801F00C03042B10D0082B0ED1C1F3A3
:100D20008343C9031DF803000AD5516804AAC1F31F
:100D30004041515C0A4A5043B0FBF1F005B07047A6
:100D400008494843FAE700000203040506070809BA
:100D50000A0B0C0D0E0F10100102000000100240D3
:100D600000127A0000093D002DE9F84F040070D010
:100D70002078C04DC00749D06868C0F381000128C1
:100D800007D06868C0F38100022809D16868C003F1
:100D900006D52868800339D560680028E7D035E09B
:100DA0006068B0F5803F0BD010B1B0F5A02F11D026
:100DB000286820F480302860286820F4802002E031
:100DC000286840F480302860606890B1FFF742FEE8
:100DD00006460AE0286840F480202860F0E700BF5B
:100DE000FFF738FE801B642873D828688003F7D586
:100DF0000CE0FFF72FFE064605E000BFFFF72AFED6
:100E0000801B6428F0D828688003F7D420789A4E95
:100E100080074FF001094FF0000839D5686810F0DD
:100E20000C0F07D06868C0F38100022809D16868F8
:100E3000C00306D42868800714D52069012808D18A
:100E400010E02069B0B1C6F80090FFF703FE074636
:100E500005E00AE1FFF7FEFDC01B0228C4D82868A0
:100E60008007F7D52868616920F0F80040EAC100E2
:100E700028600DE0C6F80080FFF7ECFD074604E0AF
:100E8000FFF7E8FDC01B022823D828688007F7D4A5
:100E9000207800072CD57948A169D9B1C0F8009015
:100EA000FFF7D8FD074604E0FFF7D4FDC01B02287A
:100EB0000FD8686A8007F7D571484FF4FA51006877
:100EC000B0FBF1F0009000BF0098411E0091FAD2F3
:100ED0000EE080E0C0F80080FFF7BCFD074604E0AC
:100EE000FFF7B8FDC01B022875D8686A8007F7D4E1
:100EF0002078400760D5E8690027C00008D4E86979
:100F000040F08050E861E869012700F080500090CF
:100F10005C480168C90513D40168834641F48071B7
:100F20000160FFF797FD824606E000BFFFF792FDE4
:100F3000A0EB0A0064284ED8DBF80000C005F5D508
:100F4000E06801280AD008B1052813D0286A20F0EB
:100F500001002862286A20F0040002E0286A40F0BC
:100F600001002862E06841F2883B98B1FFF772FD0A
:100F700082460BE0286A40F004002862EEE700BFDA
:100F8000FFF768FDA0EB0A0159455AD8286A800787
:100F9000F6D50CE0FFF75EFD824605E0FFF75AFD4F
:100FA000A0EB0A0159454CD8286A8007F6D41FB136
:100FB000E86920F08050E861E06988B36968C1F3AE
:100FC0008101022944D00228C6F8608004D0FFF7CE
:100FD00041FD044638E034E0FFF73CFD074604E0FD
:100FE000FFF738FDC01B02282BD828688001F7D4F2
:100FF000206AB0F5803F05D16868A16820F4003010
:1010000008436860D4E908010843696821F4741151
:1010100008436860C6F86090FFF71CFD044606E0D0
:1010200025E000BFFFF716FD001B022809D828683D
:101030008001F7D51BE000BFFFF70CFD001B022865
:1010400002D90320BDE8F88F28688001F4D40EE0AF
:101050000128F7D06868226A00F48031914204D1F7
:10106000616A00F47010884201D00120EAE7002094
:10107000E8E70000001002400000424280044242C3
:10108000180000200070004010B5401EB0F1807FB5
:1010900001D3012010BD4FF0E02460610F216017E3
:1010A00001F052F90020A06107202061002010BD4E
:1010B0007047704770B590F83C20012A19D0012480
:1010C00000F83C4F0222427050F83C3C5A689D6840
:1010D00022F070060A684968324325F080052943EA
:1010E0005A6050F83C2C9160447000210170084611
:1010F00070BD022070BD10B5040003D094F83D000F
:1011000010B107E0012010BD002084F83C0020460B
:1011100000F00CF8022084F83D00211D206800F04A
:1011200085FE012084F83D00002010BD08B5114A5D
:1011300001681148914208D1816941F400618161DF
:10114000806900F40060009008BD0C4A9142FBD118
:10115000C16941F01001C161C069002200F01000B6
:10116000009011463620FFF7E1FCBDE8084036202C
:10117000FFF7CEBC002C01400010024000100040E0
:10118000022180F83D1001688A6802F00702062AF1
:1011900003D00A6842F001020A60012180F83D1084
:1011A000002070470168CA6842F00102CA60006806
:1011B000816801F00701062903D0016841F00101AF
:1011C00001600020704770B5044690F83C0001288B
:1011D00017D0012584F83C50022084F83D00206897
:1011E000826822F0770222F47F42826008685028E9
:1011F00030D00DDC20284DD005DC98B310283BD131
:1012000048E0022070BD302844D0402834D139E075
:10121000602828D0702806D0B0F5805F2CD0B0F5BB
:10122000005F29D10AE0CB68D1E90121206800F0F4
:1012300050FE2068816841F0770109E0CB68D1E970
:101240000121206800F045FE2068816841F480415A
:10125000816011E0CA684968206800F00FFF5021E2
:10126000206807E016E0CA684968206800F017FFA8
:101270006021206800F037FE84F83D50002084F89B
:101280003C0070BDCA684968206800F0F7FE402144
:101290002068EFE7226801461046EBE7704770B51B
:1012A0000446006801694FF00005C943890715D459
:1012B000C168C943890711D4E91E01610120207763
:1012C000206880698007204602D0FFF7E7FF04E02E
:1012D00000F002F9204600F0A1F9257720680169A5
:1012E000C943490717D4C168C943490713D46FF0EC
:1012F00004010161022020772068806910F4407F9A
:10130000204602D0FFF7CAFF04E000F0E5F82046CF
:1013100000F084F9257720680169C943090716D4CC
:10132000C168C943090712D46FF0080101610420A4
:1013300020772068C0698007204602D0FFF7AEFF03
:1013400004E000F0C9F8204600F068F9257720682D
:101350000169C943C90617D4C168C943C90613D472
:101360006FF010010161082020772068C06910F437
:10137000407F204602D0FFF791FF04E000F0ACF878
:10138000204600F04BF9257720680169C943C90759
:1013900008D1C168C943C90704D1891E016120462B
:1013A00000F060F920680169C943090609D4C168E1
:1013B000C943090605D46FF0800101612046FFF79B
:1013C00077FE20680169C943490609D4C168C94349
:1013D000490605D46FF040010161204600F06EF926
:1013E00020680169C94389060BD4C168C9438906CD
:1013F00007D46FF0200101612046BDE87040FFF77F
:1014000058BE70BD70B586B0002100910191029167
:10141000039100682B4902242B4D2C4EB0F1804FD4
:1014200024D02B4A90421FD1886940F00400886183
:10143000886900F004000490886940F00800886121
:101440008869694600F0080004904020CDE9000456
:1014500030460394FFF7F8F90120CDE9000469460E
:1014600028460394FFF7F0F906B070BD886940F094
:1014700008008861886900F008000490886940F0DD
:10148000040088618869694600F0040004904FF404
:101490008060CDE9000428460394FFF7D5F94FF4A6
:1014A0000040CDE90004694630460394FFF7CCF9CB
:1014B0000848416821F4407141F0E06141F4407115
:1014C0004160D1E700100240000C014000080140DB
:1014D0000004004000000140704770B5044690F8D9
:1014E0003C000D4601280DD0012684F83C60022006
:1014F00084F83D0042B1042A18D0082A2AD00C2AC8
:101500004DD139E0022070BD206800F0F5FC206864
:10151000816941F0080181612068816921F004013D
:101520008161206881692A69114311E0206800F017
:1015300013FD2068816941F400618161206881693F
:1015400021F480618161206881692A6941EA022170
:10155000816124E0206800F035FD2068C16941F018
:101560000801C1612068C16921F00401C1612068DE
:10157000C1692A69114311E0206800F057FD206815
:10158000C16941F40061C1612068C16921F48061D1
:10159000C1612068C1692A6941EA0221C16184F8F8
:1015A0003D60002084F83C0070BD10B5040003D0FD
:1015B00094F83D0010B107E0012010BD002084F830
:1015C0003C00204600F00CF8022084F83D00211D6C
:1015D000206800F02BFC012084F83D00002010BDA5
:1015E00008B501680B48B1F1804F0BD00A4A91420F
:1015F00007D1C16941F00201C161C06900F0020078
:10160000009008BDC16941F00101C161C06900F0ED
:101610000100F5E7001002400004004070470000A0
:1016200010B504460068012200F046FC0B49206812
:10163000884202D00A49884203D1416C41F40041FA
:1016400041642068816801F00701062903D0016820
:1016500041F001010160002010BD0000002C01409C
:101660000034014010B5124900680968884206D16B
:1016700010484168B1F5FA7F02DA491C416010BD9B
:101680000021416081680C4CC1F101018160012998
:1016900009D0002001F0EAFB01222046BDE81040FD
:1016A0000421FFF7D2B9012001F0E0FB0022F4E7AA
:1016B000E000002000000020001401407047704747
:1016C00070B5026804461068D168536910F00F0FB6
:1016D00050D003F0010501F4907635435DD0C20788
:1016E00005D0CA0503D5E26B42F00102E26342076E
:1016F00005D5DA0703D0E26B42F00202E26382070B
:1017000005D5DA0703D0E26B42F00402E263020778
:1017100005D5DA0703D0E26B42F00802E263E26B20
:10172000002A33D0800604D5880602D5204600F072
:10173000DEFC20684069E16BC0F38010090700D42B
:1017400028B3204600F0C5FC2068416949061AD537
:10175000416921F040014161606BA0B11B494163C7
:10176000606BFEF7C7FF002810D0606B416BBDE8CF
:1017700070400847830610D58B060ED52046BDE87D
:10178000704000F0B4BC2046FFF799FF70BD2046C2
:10179000FFF795FF0020E06370BD030606D50B063A
:1017A00004D52046BDE8704000F048BD4006F3D5A2
:1017B0004806F1D5D168204621F04001D1602021B2
:1017C00084F8391000F047F970BD0000C32000080C
:1017D00070B5040004D094F83900002510B106E07B
:1017E000012070BD84F83850204600F023F82420F2
:1017F00084F839002068C16821F40051C160204696
:1018000000F0C0FC2068016921F49041016120686A
:10181000416921F02A0141612068C16841F4005109
:10182000C160E563202084F8390084F83A00002084
:1018300070BD000070B586B000240094019402943D
:1018400003942B4E03682B49022003222A4DB342F6
:1018500029D18B6943F480438B618B6903F4804306
:1018600004938B6943F004038B618969039201F04F
:10187000040104910102CDE9001069462846FEF7F3
:10188000E3FF2815CDE90004694628460294FEF7D7
:10189000DBFF002203212520FFF748F92520FFF771
:1018A00037F906B070BD154EB342FAD1CB6943F497
:1018B0000033CB61CB6903F4003304938B6943F0AD
:1018C00004038B618969039201F0040104910421EE
:1018D000CDE9001069462846FEF7B6FF0820CDE99D
:1018E0000004694628460294FEF7AEFFD9E70000DF
:1018F0000038014000100240000801400044004050
:1019000090F83A30202B22D1F9B1F2B190F838306A
:10191000012B1CD081628285C2850021C1632222F5
:1019200080F83A2080F838100168CA6842F4807262
:10193000CA6001684A6942F001024A610068C168F0
:1019400041F02001C1600020704701207047022053
:101950007047000038B50E4905460068096888429E
:1019600014D10CA04FF6FF740068009023460A22A1
:101970000949284600F012F80028F7D12346022230
:101980006946284600F00AF80028F7D138BD000063
:10199000200100200D0A0000000000202DE9F8437E
:1019A000044690F839001F4616460D46202850D1AF
:1019B000A5B19EB194F8380001284AD0012084F8DE
:1019C00038004FF00008C4F83C80212084F839002A
:1019D000FFF740F8A6848146E68426E00120BDE8B2
:1019E000F883E08C401EE084A0684B46B0F5805F31
:1019F0004FF000024FF080012046009703D000F026
:101A00004EFCE8B90DE000F04AFCC8B9288821680E
:101A1000C0F308004860206908B16D1C05E0AD1CEA
:101A200003E0216815F8010B4860E08C0028D8D14C
:101A30004B46002240212046009700F030FC08B1C0
:101A40000320CCE7202084F8390084F83880002077
:101A5000C5E70220C3E77047FEE700002DE9F04F1D
:101A600085B000243948009401940294039481695C
:101A700041F020018161816901F0200104918169B7
:101A800041F004018161816901F0040104918169DF
:101A900041F008018161816901F0080104918169C7
:101AA00041F01001816180694FF4714500F0100030
:101AB0000490002229462648FEF7C7FFDFF89490DD
:101AC0004FF47077002239464846FEF7BEFFDFF834
:101AD00088A04FF48078002241465046FEF7B5FFBB
:101AE000DFF878B0002204215846FEF7AEFF0095DB
:101AF000022601250396CDE9015469461448FEF7F4
:101B0000A3FE00970396CDE9015469464846FEF7C7
:101B10009BFECDF800800396CDE9015469465046FE
:101B2000FEF792FE0420CDE90005CDE902466946A4
:101B30005846FEF789FE6802CDE90004694604486C
:101B40000294FEF781FE05B0BDE8F08F0010024060
:101B5000000C014000100140000801400014014049
:101B600010B586B0002417480094019402940394A1
:101B700004941349059401604721C0E901144FF60C
:101B8000FF71C0E9031444618461FFF7B4FA08B13E
:101B9000FEF7AFFD4FF48050009069460948FFF70B
:101BA00012FB08B1FEF7A5FD049404A905480594AD
:101BB000FFF780FA002801D0FEF79BFD06B010BDAC
:101BC000002C01402000002010B58AB000240794AA
:101BD0001C2168460894FEF7DEFA1A484FF080414F
:101BE00001604721C0E9011440F2E731C0E9031464
:101BF0008461FFF7DAFC08B1FEF77BFD079407A9C3
:101C000010480894FFF756FA08B1FEF772FD6020FD
:101C1000CDE900040294002269460A480494FFF7C3
:101C20005CFC08B1FEF765FD082269460548FFF730
:101C300054FC08B1FEF75DFD0248FFF7E3FB0AB074
:101C400010BD00006000002010B58AB00024079489
:101C50001C2168460894FEF79EFA1A48184901604C
:101C60004721C0E9011440F2E731C0E9031484615F
:101C7000FFF79BFC08B1FEF73CFD079407A911484C
:101C80000894FFF717FA08B1FEF733FD6020CDE99D
:101C900000040294002269460A480494FFF71DFCE0
:101CA00008B1FEF726FD082269460648FFF715FC35
:101CB00008B1FEF71EFD0348FFF7A4FB0AB010BDF4
:101CC00000040040A00000201CB500240E48009431
:101CD0000C49019401604721C0E9011442F20F71DF
:101CE0008461C160FFF707FA08B1FEF702FD0094B6
:101CF000694605480194FFF7DDF9002801D0FEF799
:101D0000F8FC1CBD00100040E00000200C4810B59D
:101D10000A4901604FF4E1314160002181600C22E9
:101D2000C160C0E904128161C161FFF751FD002863
:101D300003D0BDE81040FEF7DCBC10BD0038014008
:101D4000200100200C4810B50A4901604FF4E13130
:101D50004160002181600C22C160C0E904128161F0
:101D6000C161FFF735FD002803D0BDE81040FEF744
:101D7000C0BC10BD0044004060010020FEE7704779
:101D800070477047FEF76CBE30B58FB028216846AB
:101D9000FEF701FA14210AA8FEF7FDF90121080453
:101DA000CDE900100024029402250491CDE90750EA
:101DB0004FF4E01009906846FEF7D6FF0F20CDE9FA
:101DC0000A056802CDE90C4002210AA80E94FEF72C
:101DD000DFFE0FB030BD00000D48016841F0010189
:101DE000016041680B4A1140416001680A4A114094
:101DF0000160016821F480210160416821F4FE0145
:101E000041604FF41F0181600449C00308607047BE
:101E1000001002400000FFF8FFFFF6FE08ED00E0B2
:101E20000148FFF73CBA0000E0000020F0B502686E
:101E30001C4B1D4D1D4E1E4F1E4C4FF0804C9842AA
:101E400009D0A04207D0604505D0A84203D0B042D7
:101E500001D0B84204D122F0700E4A6842EA0E0264
:101E6000984209D0A04207D0604505D0A84203D0CF
:101E7000B04201D0B84203D122F44075CA682A4367
:101E80004D6922F080022A4302608A68C2620A68B1
:101E90008262984201D0A04201D109690163012107
:101EA0004161F0BD002C01400004004000080040EA
:101EB000000C00400034014010B501F01F03012167
:101EC000046A99408C430462016A9A40114301629A
:101ED00010BD10B5846842EA032224F47F440A430B
:101EE0002243826010BD826822F070020A4342F0F1
:101EF0000701816070470000F0B5026A22F001021C
:101F00000262036A42688469124E24F073050C6809
:101F10002C4323F002058B682B430D4DA84201D0C2
:101F2000B04205D123F00807CB683B4323F00403FC
:101F3000A84201D0B04205D14D6922F44072154348
:101F40008A692A4342608461496841630362F0BD43
:101F5000002C014000340140F0B5026A22F010026A
:101F60000262026A436884690D6824F4E64444EA24
:101F700005248D6822F0200242EA05120F4D104E12
:101F8000A84201D0B04206D1CF6822F0800242EAD6
:101F9000071222F04002A84201D0B04207D14D6999
:101FA00023F4406343EA85038D6943EA8503436074
:101FB0008461496881630262F0BD0000002C014029
:101FC00000340140F0B5026A22F480720262026AB3
:101FD0004368C46922F4007224F073050C68124E41
:101FE0002C438D6842EA05220E4DA84201D0B04232
:101FF00006D1CF6822F4006242EA072222F480620E
:10200000A84201D0B04207D14D6923F4405343EABE
:1020100005138D6943EA05134360C4614968C163D0
:102020000262F0BD002C01400034014030B5026A6C
:1020300022F480520262046A4268C3690D6823F484
:10204000E64343EA05238D6824F4005444EA05344A
:10205000084DA84202D0084DA84204D14D6922F48F
:10206000804242EA85124260C361496801640462A9
:1020700030BD0000002C01400034014010B5036A5F
:10208000046A24F001040462846924F0F00444EA40
:10209000021423F00A020A438461026210BD10B5E3
:1020A000036A23F0100303628369046A23F4704314
:1020B00043EA023224F0A00343EA01118261016283
:1020C00010BD10B5406A0021C185C184FFF7F7FA41
:1020D00010BD0168CA6822F49072CA6001684A693A
:1020E00022F001024A61202180F83A10704710B5B1
:1020F00090F83A10222901D0022010BD8168B1F574
:10210000805F11D00169002901681FD0496801F082
:102110007F03816A4A1C82620B70C18D491E0904CB
:10212000090CC18518D02BE00269816A002A026877
:10213000526805D0D2B20A80816A491C8162ECE7FC
:10214000C2F308020A80816A891CF7E74A68816A3B
:102150004B1C83620A70E0E70168CA6822F0200223
:10216000CA600168CA6822F48072CA6001684A695C
:1021700022F001024A61202180F83A10FFF7EAFBC1
:10218000002010BD2DE9F041044600680169E268B5
:1021900021F44051114301612169A068084361693C
:1021A00008432168CA6841F20C639A430243CA603B
:1021B00020684169A26921F44071114341611E49BF
:1021C000206864253226884202D1FEF787FD01E0AF
:1021D000FEF774FD00EBC00101EB001160686FF0C9
:1021E00018078000B1FBF0F2B2FBF5F2B1FBF0F39F
:1021F0007A4303EB8202B1FBF0F306EB0212B2FB6F
:10220000F5F2B3FBF5F302F0F00202EB0312B1FBBF
:10221000F0F3B1FBF0F0B0FBF5F0784303EB800096
:1022200006EB0010B0FBF5F0216800F00F00104441
:102230008860BDE8F08100000038014090F8391056
:10224000212901D0022070478168B1F5805F016AC1
:102250000BD04A1C0262026809785160C18C491E89
:102260000904090CC1840ED017E009880268C1F383
:102270000801516001690029016A02D0491C01620C
:10228000ECE7891CFBE70168CA6822F08002CA609B
:102290000068C16841F04001C160002070472DE92D
:1022A000F041984617460E460446069D1DE0681C00
:1022B0001BD02DB1FEF7CEFBA0EB0800A84214D92D
:1022C0002068C16821F4D071C1602068416921F0A3
:1022D00001014161202084F8390084F83A0000208F
:1022E00084F838000320BDE8F0812068006836EAF1
:1022F000000004D00020B842D9D00020F3E701202C
:10230000F9E7000010B50548FFF7DAF9BDE810401D
:10231000012203490148FFF7F3BA00002001002021
:1023200000000020FEE700000FB4054B10B503A924
:10233000044A029800F0EAF810BC5DF814FB0000B3
:10234000252D00081C0000200907090E002804DBC9
:1023500000F1E02080F80014704700F00F0000F159
:10236000E02080F8141D704702E008C8121F08C161
:10237000002AFAD170477047002001E001C1121F06
:10238000002AFBD1704700002DE9FF5F82B00021D9
:10239000DDE90430020DDDF840B0034318D044F607
:1023A0001050A2F2FF3242431514119801281FD099
:1023B000A5EB0B00401C5FEA000A4FF000064E4FF1
:1023C000DFF83891B046504615D5CAF1000413E045
:1023D000119801244AA3012801D16FEA0B01029848
:1023E000119AC0E90031C0E9024206B0BDE8F09F91
:1023F000CBF10000DFE704460021404A491842EBD8
:102400000450CDE9001012E0E00707D032463B4609
:1024100040464946FDF7CAFE8046894632463B465D
:1024200010461946FDF7C2FE06460F466410002C02
:10243000EAD1DDE90401DDE90023BAF1000F06DA93
:10244000FDF7B4FE42464B46FDF7B0FE05E0FDF752
:102450001FFF42464B46FDF71BFF04460E46002277
:10246000284BFEF7F9F803D84FF0FF30014607E09C
:102470000022254B20463146FEF72EF8FEF7D3F812
:10248000102409E0002C0ADB0A220023FDF796FF46
:10249000039B30321A55641E50EA0102F2D1641CCB
:1024A000039AC4F111031444119A012A03D00122A2
:1024B00008430DD10AE0084304D000204FF0110B6F
:1024C000119072E7A3EB0B056D1E0DE05B4504DD7B
:1024D0004FF0000205F1010504E003DA4FF00002BD
:1024E000A5F10105002AECD002981199C0E902314A
:1024F000C0E9004579E70000000014400000F03F0B
:10250000300000000000F0430000E03F2DE9FF4FE5
:1025100095B09B468946064600250FE2252877D1CF
:1025200000242746F84A0121059400E0044316F8E8
:10253000013F203B01FA03F01042F7D130782A28FE
:1025400011D06FF02F033078A0F13002092A16D88D
:10255000059A44F0020402EB820203EB42021044AB
:10256000761C0590EFE759F8042B0592002A03DA50
:10257000504244F40054059044F00204761C307834
:102580002E2816D116F8010F44F004042A280DD085
:102590006FF02F023078A0F13003092B09D807EB38
:1025A000870302EB4303C718761CF3E759F8047B53
:1025B000761C30786C280FD006DC4C2817D06828A1
:1025C0000DD06A2814D104E0742810D07A280FD1D5
:1025D0000DE044F400140AE044F4801401E044F4F3
:1025E00040147278824202D104F58014761C761C65
:1025F000307866280BD013DC582877D009DC002807
:1026000075D04528F6D04628F4D047281AD19DE148
:1026100018E0632835D0642879D0652812D195E177
:10262000702873D008DC6728F1D069286FD06E2835
:102630000DD06F2806D1B5E073282CD0752875D041
:10264000782874D05A46179990476D1C75E1C4F3E9
:102650000250022809D003280DD0D9F80010042810
:102660000DD00D6009F1040967E1D9F80010EA17EF
:10267000C1E90052F6E7D9F800100D80F2E70D70BD
:10268000F0E719F8041B8DF8001000208DF8010008
:10269000EA46012003E059F804AB4FF0FF30610730
:1026A0004FF0000102D40DE008F101018846B94263
:1026B0000FDA8045F8DB1AF808100029F4D108E099
:1026C00008F1010188468142FADB1AF80810002956
:1026D000F6D105985B46A0EB080721463846179AC5
:1026E00000F094FA284400EB080507E04DE029E1EA
:1026F0000DE01AF8010B5A4617999047B8F10108F6
:10270000F7D25B4621463846179A13E142E00A2287
:102710000092C4F302524FF0000A022A08D059F87E
:1027200004CB032A4FEAEC710AD00DE029E02AE03D
:1027300009F1070121F00702F2E802C1914609E020
:102740000FFA8CFC4FEAEC71042A03D14FFA8CFC8F
:102750004FEAEC71002907DA0A460021DCF1000C8F
:1027600061EB02012D2202E0220504D52B228DF817
:102770000420012203E0E20701D02022F7E790467F
:1027800059E00A2102E010220DE010214FF0000A6A
:1027900000910BE010224FF0000A44F004040827D7
:1027A000009203E008224FF0000A0092C4F30252A4
:1027B000022A05D059F804CB0021032A08D009E0E9
:1027C00009F1070121F00702F2E802C1914605E094
:1027D0001FFA8CFC042A01D10CF0FF0C4FF000080A
:1027E000220728D5702806D0009B83F0100353EAF7
:1027F0000A0305D00EE040228DF80420012208E0F3
:102800005CEA010206D030228DF804208DF8050024
:1028100002229046009B83F0080353EA0A030AD180
:102820005CEA010201D1620705D530228DF804204F
:102830004FF001087F1E582804D034A003900EA842
:1028400002900DE036A0F9E753466046009AFDF786
:10285000B5FD84460398825C0298401E0290027087
:102860005CEA0100F0D1029806A9081A00F1200ADA
:10287000600702D524F4803400E00127574502DDCB
:10288000A7EB0A0000E0002000EB0A010090059889
:102890004144401A0590E00306D45B462146179A4E
:1028A000059800F0B3F90544002706E001A85A4650
:1028B000C05D179990476D1C7F1C4745F6DBE00310
:1028C0000CD55B462146179A059800F09FF9054400
:1028D00004E030205A46179990476D1C0099481E15
:1028E00000900029F5DC08E0029802995A46007829
:1028F000491C0291179990476D1CBAF10001AAF189
:10290000010AF1DC65E100000928010030313233B1
:10291000343536373839616263646566000000001B
:102920003031323334353637383941424344454605
:102930000000000000F058F90544761C30780028AB
:102940007FF4ECAD19B02846BDE8F08F620700D4E3
:10295000062709F1070222F0070CFCE80223E146F2
:1029600003F000485FEA080C02D00FF2702C0DE073
:102970005FEA045C02D50FF2682C07E05FEAC47CD2
:1029800002D00FF2602C01E0AFF2700C4FF0FF3874
:1029900023F00043CDF850C065280CD006DC452854
:1029A00009D046281DD047283DD13DE0662818D0E3
:1029B00067287ED138E00021112F01DB112000E0D3
:1029C000781CCDE9000106A90EA8FFF7DDFCDDE9C2
:1029D0000F010E9A03910021009207F1010A049160
:1029E0004DE04FF000400097CDE9011006A90EA878
:1029F000FFF7CAFCDDE90F0203920E9B119900223A
:102A0000DDF80CA00093049211B9791C00EB010AC7
:102A1000B7EB0A0004D4C0F1FF3007F1010A0490BB
:102A2000AAEB0700019044E0012F00DA0127002102
:102A3000112F01DD112000E03846CDE9000106A983
:102A40000EA8FFF7A1FCDDE90F010E9A039100210A
:102A500004910092BA4621070CD40399514500DA3B
:102A60008A46BAF1010F05DD009AAAF10101515C15
:102A7000302908D0B84202DA10F1040F06DA012139
:102A8000CDE9011015E0AAF10101E9E7002805DC14
:102A9000049901440491AAEB000102E0411C514554
:102AA00000DD8A460499401A401C01904FF0004016
:102AB0000290200704D40198504501DBCDF8048032
:102AC00000208DF84F0002980DF14F07B0F1004F34
:102AD00025D02B200E9002984FF0020800280CDA27
:102AE000404202902D200E9007E00A210298FDF747
:102AF0004FFC3031029007F8011DB8F10001A8F138
:102B00000108F2DC02980028EFD1791E0E980870B7
:102B1000307800F0200040F0450007F8020D12A8C0
:102B2000C01B00F107081498007800B1012000EBE9
:102B30000A01019801EBE07105984144401A401EDA
:102B40000590E00306D45B462146179A059800F0ED
:102B50005DF805441498007818B15A4617999047C3
:102B60006D1CE00324D55B462146179A059800F0BA
:102B70004DF805441CE00498002807DBDDE903015B
:102B8000884203DD0098405C179901E017993020D6
:102B90005A469047049805F10105401C049001989D
:102BA000401E019004D12E205A46179990476D1C63
:102BB000BAF10001AAF1010ADDDC05E017F8010B0A
:102BC0005A46179990476D1CB8F10001A8F1010809
:102BD000F4DC5B462146179A0598ABE62D00000011
:102BE0002B000000200000002DE9F04104460025E4
:102BF0001E461746880404D405E039462020B04715
:102C00006D1C641EF9D52846BDE8F0812DE9F04120
:102C1000044600251E469046C80301D5302700E033
:102C20002027880404D505E041463846B0476D1C8E
:102C3000641EF9D52846BDE8F08100002DE9F04179
:102C40000246364C3648A3155D0046144FF4805CAE
:102C50004FF4804EDF0181B101291CD0012A46D0FA
:102C6000022A4BD0032A50D0042A55D100227146A3
:102C70000446FDF7EAFE00221BE0012A38D0022AB2
:102C800005D0032A05D0042A46D10122EFE701220C
:102C900035E001223AE0012A0DD0022A13D0032A9E
:102CA00019D0042A38D1002271460446FDF7CDFE22
:102CB0000122394616E0002240212046FDF7C5FEDC
:102CC000012280210EE0002219462046FDF7BDFEBC
:102CD0000122294606E0002261460446FDF7B5FEC2
:102CE000012231462046BDE8F041FDF7AEBE00228C
:102CF00040212046FDF7A9FE0022E2E70022194606
:102D00002046FDF7A2FE0022E3E7002261460446CA
:102D1000FDF79BFE0022E4E7BDE8F08100100140D2
:102D2000000C014013B54FF6FF73012269460248BB
:102D3000FEF734FE00981CBD60010020FDF798FEF0
:102D4000FFF722F8FEF78AFEFEF73EFFFEF7BCFF14
:102D5000FEF706FFFEF778FFFEF7F4FFFEF7D6FF5B
:102D600000213348FEF75CFC08213148FEF758FC8F
:102D700000213048FEF754FC08212E48FEF750FC95
:102D80002D48FEF70FFA2D4C4FF48075002229468E
:102D90002046FDF75AFE2A48FEF7F2F9012229499A
:102DA0002948FEF7ADFDA846254D4FF000096715EF
:102DB0002968C1F824900122464641462046FDF785
:102DC00044FE0120FDF72EFD002231462046FDF78E
:102DD0003CFE39462046FDF733FE0128F9D128682C
:102DE000466A39462046FDF72BFE0028F9D12868AF
:102DF000406AB04201DD861B03E0801B4FF6FF7185
:102E000046183046FDF7B3FA4FF033320F4BFDF75B
:102E1000CDF900220E4BFDF73BFA02460B46314638
:102E20000CA0FFF781FA4FF47A70FDF7FBFCBFE7C7
:102E300060000020A0000020E0000020000C014005
:102E40002000002000000020200100203333FB3F41
:102E50000000594075733D25640964697374616E9F
:102E600063653D252E3266636D0D0A0010B504467C
:102E700001460120FFF7E2FE21460220FFF7DEFEB9
:102E800021460320FFF7DAFE2146BDE8104004206A
:102E9000FFF7D4BE000000000000000001020304A0
:102EA000060708090000000001020304CC2E0008F8
:102EB000000000202000000068230008EC2E00081D
:102EC000200000208005000078230008000000009A
:102ED00000000000000000000100000010000000E1
:0C2EE000000000000024F40000000000CE
:0400000508000131BD
:00000001FF
