:020000040800F2
:10000000D80400204501000873100008AB0E00085A
:1000100071100008B10100084D1300080000000035
:100020000000000000000000000000007710000841
:10003000B3010008000000007510000879100008E6
:100040005F0100085F0100085F0100085F01000810
:100050005F0100085F0100085F0100085F01000800
:100060005F0100085F0100085F0100085F010008F0
:100070005F0100085F0100085F0100085F010008E0
:100080005F0100085F0100085F0100085F010008D0
:100090005F0100085F0100085F0100085F010008C0
:1000A0005F0100085F0100085F0100085F010008B0
:1000B0005F0100085F0100085F0100085F010008A0
:1000C0005F0100085F0100085F0100085F01000890
:1000D0005F0100085F0100085F0100085F01000880
:1000E0005F0100085F0100085F0100085F01000870
:1000F0005F0100085F0100085F0100085F01000860
:100100005F0100085F0100085F0100085F0100084F
:100110005F0100085F010008151100085F01000879
:100120005F0100085F0100085F0100085F0100082F
:10013000DFF80CD000F02AF8004800478D130008C3
:10014000D80400200648804706480047FEE7FEE73F
:10015000FEE7FEE7FEE7FEE7FEE7FEE7FEE7FEE777
:10016000CD10000831010008D2B201E000F8012BE7
:10017000491EFBD270470022F6E710B513460A4627
:1001800004461946FFF7F0FF204610BD064C074D08
:1001900006E0E06840F0010394E807009847103457
:1001A000AC42F6D3FFF7C8FF001400082014000883
:1001B000FEE770472DE9F84FDFF8C891002409F1F8
:1001C000040A0AF1040B23460F270BF1040ED1E0B9
:1001D0000125A54006EA0502AA4276D1DFF8A8C1AA
:1001E0004E68A6EB0C0866452BD00DDC032E34D0F0
:1001F00005DC36B3012E19D0022E2FD11BE0112EB3
:1002000016D0122E2AD119E0B8F5881F19D006DCB5
:10021000B8F5803F15D0B8F5801F1FD111E0B8F5B3
:10022000001F0ED0B8F5041F18D10AE0CB6815E006
:10023000CB681B1D12E0CB6808330FE0CB680C3392
:100240000CE08B682BB1012B4FF0080303D0456104
:1002500004E0042302E0056100E00023FF2A01D846
:10026000064601E000F104064FEA840501D9A5F134
:100270002005D6F8008007FA05FC28EA0C0803FAE6
:1002800005F548EA0508C6F800804D68ED0070D510
:100290003E4DAE6946F00106AE61AD6924F003063D
:1002A00005F0010500953A4D06EB050CDCF8085009
:1002B000A607360F07FA06F825EA0805DFF8D48006
:1002C000404503D14FF0000825E052E0DFF8C88038
:1002D000404502D14FF001081DE0DFF8C0804045E5
:1002E00002D14FF0020816E0DFF8B480404502D199
:1002F0004FF003080FE0DFF8AC80404502D14FF02B
:10030000040808E0DFF8A080404502D14FF005085E
:1003100001E04FF0060808FA06F848EA0508CCF8AC
:1003200008804D68D9F80060ED034D4601D51643AD
:1003300000E096432E604D68DAF80060AD03554644
:1003400001D5164300E096432E604D68DBF800604F
:10035000ED025D4601D5164300E096432E604D68E0
:10036000DEF80060AD02754601D5164300E0964305
:100370002E60641C0A681646E2407FF429AFBDE88F
:10038000F88F00000004014000001110001002402E
:100390000000014000080140000C01400010014035
:1003A0000014014000180140001C01400AB1016125
:1003B00070470904FBE700000148806870470000AF
:1003C000080000200248816802781144816070476B
:1003D00008000020074810B5016841F010010160D5
:1003E000032000F075F8002000F006F800F024F873
:1003F000002010BD0020024070B50D4D04464FF4A2
:100400007A712878B1FBF0F00A490968B1FBF0F085
:1004100000F0CCFA48B9102C07D200222146501E19
:1004200000F036F800206C6070BD012070BD000047
:1004300008000020140000200C4808B5816941F034
:1004400001018161816901F001010091C16941F0FF
:100450008051C161C06900F080500090044841683B
:1004600021F0E06141F08061416008BD0010024070
:1004700000000140002809DB00F01F02012191402B
:100480004009800000F1E020C0F800117047000032
:10049000F0B40E4B1B680C46C3F30223C3F10705EF
:1004A000042D00D90425191D072901D2002300E0DD
:1004B000DB1E012606FA05F1491E214099409E40A7
:1004C000761E16403143F0BC00F041BF0CED00E059
:1004D000064900F0070208684FF6FF03184040EA9B
:1004E0000220034A10430860704700000CED00E052
:1004F0000000FA052DE9F0470F46050061D0434E94
:10050000306800F00700B84209D2306820F00700D8
:1005100038433060306800F00700B84251D1286895
:100520003B4C810712D5400703D5606840F4E0607A
:1005300060602878000703D5606840F46050606010
:100540006068A96820F0F000084360602878C00760
:1005500028D06868012810D02168022810D08907A7
:1005600000292EDA616821F0030101436160FFF781
:1005700023FF804641F288390DE021688903EFE7C7
:100580008901EDE7FFF718FFA0EB0801494502D903
:100590000320BDE8F0876068696800F00C00B0EBEC
:1005A000810FEFD1306800F00700B8420BD93068F6
:1005B00020F0070038433060306800F00700B84290
:1005C00001D00120E5E72878400705D56068E96893
:1005D00020F4E060084360602878000706D5606872
:1005E000296920F4605040EAC100606000F018F80A
:1005F0006168084AC1F30311515CC84006490860AC
:1006000006480068FFF7F8FE0020C2E7002002401D
:1006100000100240F0130008140000200C0000201D
:1006200012A185B00FC98DE80F0014A0144A00680C
:1006300004905168134801F00C03042B10D0082BD0
:100640000ED1C1F38343C9031DF803000AD55168D5
:1006500004AAC1F34041515C0A4A5043B0FBF1F097
:1006600005B0704708494843FAE700000203040553
:10067000060708090A0B0C0D0E0F101001020000EE
:100680000010024000127A0000093D002DE9F84FE9
:10069000040070D02078C04DC00749D06868C0F30E
:1006A0008100012807D06868C0F38100022809D1C1
:1006B0006868C00306D52868800339D560680028BB
:1006C000E7D035E06068B0F5803F0BD010B1B0F5F1
:1006D000A02F11D0286820F480302860286820F4EA
:1006E000802002E0286840F480302860606890B183
:1006F000FFF762FE06460AE0286840F48020286082
:10070000F0E700BFFFF758FE801B642873D8286805
:100710008003F7D50CE0FFF74FFE064605E000BF6B
:10072000FFF74AFE801B6428F0D828688003F7D4BE
:1007300020789A4E80074FF001094FF0000839D514
:10074000686810F00C0F07D06868C0F381000228B9
:1007500009D16868C00306D42868800714D52069C9
:10076000012808D110E02069B0B1C6F80090FFF769
:1007700023FE074605E00AE1FFF71EFEC01B022824
:10078000C4D828688007F7D52868616920F0F80088
:1007900040EAC10028600DE0C6F80080FFF70CFEBB
:1007A000074604E0FFF708FEC01B022823D828688C
:1007B0008007F7D4207800072CD57948A169D9B1F2
:1007C000C0F80090FFF7F8FD074604E0FFF7F4FDDE
:1007D000C01B02280FD8686A8007F7D571484FF40C
:1007E000FA510068B0FBF1F0009000BF0098411E84
:1007F0000091FAD20EE080E0C0F80080FFF7DCFD47
:10080000074604E0FFF7D8FDC01B022875D8686AC8
:100810008007F7D42078400760D5E8690027C0003A
:1008200008D4E86940F08050E861E869012700F0E9
:10083000805000905C480168C90513D40168834664
:1008400041F480710160FFF7B7FD824606E000BF0A
:10085000FFF7B2FDA0EB0A0064284ED8DBF80000D9
:10086000C005F5D5E06801280AD008B1052813D0E5
:10087000286A20F001002862286A20F0040002E0C3
:10088000286A40F001002862E06841F2883B98B194
:10089000FFF792FD82460BE0286A40F004002862D0
:1008A000EEE700BFFFF788FDA0EB0A0159455AD8D3
:1008B000286A8007F6D50CE0FFF77EFD824605E04A
:1008C000FFF77AFDA0EB0A0159454CD8286A80074A
:1008D000F6D41FB1E86920F08050E861E06988B380
:1008E0006968C1F38101022944D00228C6F86080FA
:1008F00004D0FFF761FD044638E034E0FFF75CFD0B
:10090000074604E0FFF758FDC01B02282BD82868D3
:100910008001F7D4206AB0F5803F05D16868A168EE
:1009200020F4003008436860D4E90801084369688E
:1009300021F4741108436860C6F86090FFF73CFD2D
:10094000044606E025E000BFFFF736FD001B022845
:1009500009D828688001F7D51BE000BFFFF72CFD00
:10096000001B022802D90320BDE8F88F2868800107
:10097000F4D40EE00128F7D06868226A00F48031D0
:10098000914204D1616A00F47010884201D00120C4
:10099000EAE70020E8E700000010024000004242C1
:1009A00080044242140000200070004010B5401E38
:1009B000B0F1807F01D3012010BD4FF0E0246061D1
:1009C0000F21601700F0C3FC0020A0610720206108
:1009D000002010BD7047704770B590F83C20012A88
:1009E00019D0012400F83C4F0222427050F83C3CE0
:1009F0005A689D6822F070060A684968324325F0FB
:100A0000800529435A6050F83C2C916044700021C5
:100A10000170084670BD022070BD10B5040003D0FF
:100A200094F83D0010B107E0012010BD002084F8CB
:100A30003C00204600F00CF8022084F83D00211D07
:100A4000206800F06DFB012084F83D00002010BDFF
:100A500008B500680B49884212D10B48C16941F0C2
:100A60001001C161C069002200F010000090114621
:100A70003620FFF70DFDBDE808403620FFF7FABC31
:100A800008BD000000100040001002400168CA6864
:100A900042F00102CA600068816801F0070106297E
:100AA00003D0016841F001010160002070477047E8
:100AB00070B50446006801694FF00005C943890715
:100AC00015D4C168C943890711D4E91E0161012009
:100AD0002077206880698007204602D0FFF7E7FF73
:100AE00004E000F003F9204600F0A2F92577206821
:100AF0000169C943490717D4C168C943490713D4D9
:100B00006FF004010161022020772068806910F4F1
:100B1000407F204602D0FFF7CAFF04E000F0E6F86D
:100B2000204600F085F9257720680169C943090747
:100B300016D4C168C943090712D46FF008010161D6
:100B4000042020772068C0698007204602D0FFF784
:100B5000AEFF04E000F0CAF8204600F069F92577FE
:100B600020680169C943C90617D4C168C943C906C9
:100B700013D46FF010010161082020772068C0694C
:100B800010F4407F204602D0FFF791FF04E000F010
:100B9000ADF8204600F04CF9257720680169C9437B
:100BA000C90708D1C168C943C90704D1891E0161B9
:100BB000204600F061F920680169C943090609D49B
:100BC000C168C943090605D46FF080010161204660
:100BD000FFF700FF20680169C943490609D4C168CD
:100BE000C943490605D46FF040010161204600F079
:100BF0005BF920680169C94389060BD4C168C94300
:100C0000890607D46FF0200101612046BDE87040DD
:100C1000FFF7E1BE70BD000070B586B00021009105
:100C200001910291039100682B4902242B4D2C4E17
:100C3000B0F1804F24D02B4A90421FD1886940F0F8
:100C400004008861886900F004000490886940F01D
:100C5000080088618869694600F008000490402017
:100C6000CDE9000430460394FFF7A4FA0120CDE952
:100C70000004694628460394FFF79CFA06B070BD4D
:100C8000886940F008008861886900F008000490D5
:100C9000886940F0040088618869694600F00400B2
:100CA00004904FF48060CDE9000428460394FFF7D8
:100CB00081FA4FF40040CDE90004694630460394C0
:100CC000FFF778FA0848416821F4407141F0E0618B
:100CD00041F440714160D1E700100240000C014036
:100CE000000801400004004000000140704770B55A
:100CF000044690F83C000D4601280DD0012684F8EA
:100D00003C60022084F83D0042B1042A18D0082A31
:100D10002AD00C2A4DD139E0022070BD206800F0A5
:100D200053FA2068816941F0080181612068816976
:100D300021F004018161206881692A69114311E071
:100D4000206800F071FA2068816941F400618161D6
:100D50002068816921F480618161206881692A6944
:100D600041EA0221816124E0206800F093FA2068C2
:100D7000C16941F00801C1612068C16921F0040125
:100D8000C1612068C1692A69114311E0206800F03F
:100D9000B5FA2068C16941F40061C1612068C16988
:100DA00021F48061C1612068C1692A6941EA022198
:100DB000C16184F83D60002084F83C0070BD10B52E
:100DC000040003D094F83D0010B107E0012010BDED
:100DD000002084F83C00204600F00CF8022084F843
:100DE0003D00211D206800F09BF9012084F83D00A2
:100DF000002010BD08B501680B48B1F1804F0BD041
:100E00000A4A914207D1C16941F00201C161C0693A
:100E100000F00200009008BDC16941F00101C1610C
:100E2000C06900F00100F5E7001002400004004036
:100E30007047000010B504460068012200F0B6F9C2
:100E40000B492068884202D00A49884203D1416C8C
:100E500041F4004141642068816801F007010629DE
:100E600003D0016841F001010160002010BD0000C5
:100E7000002C01400034014009490068096888429B
:100E800006D108480168B1F5FA7F02DA491C016011
:100E90007047002101604168C1F101014160704764
:100EA00098000020000000207047FEE72DE9F04F79
:100EB00085B000243548009401940294039481691C
:100EC00041F020018161816901F020010491816973
:100ED00041F004018161816901F00401049181699B
:100EE00041F008018161816901F008010491816983
:100EF00041F0100181618069DFF8949000F01000EA
:100F00004FF470450490002229464846FFF74EFAF8
:100F1000DFF880A0AF11002239465046FFF746FAAD
:100F2000DFF874B04FF48078002241465846FFF74E
:100F30003DFA002204211948FFF738FA00950226ED
:100F400001250396CDE9015469464846FFF732F979
:100F500000970396CDE9015469465046FFF72AF9F8
:100F6000CDF800800396CDE9015469465846FFF755
:100F700021F90420CDE90005CDE90246694607487C
:100F8000FFF718F905B0BDE8F08F0000001002402F
:100F9000000C014000100140000801400014014015
:100FA00010B58AB0002407941C2168460894FFF706
:100FB000E2F814484FF0804101604721C0E9011474
:100FC00040F2E731C0E903148461FFF7F8FE0794AB
:100FD00007A90C480894FFF7FFFC6020CDE9000446
:100FE00002940022694607480494FFF780FE082215
:100FF00069460448FFF77BFE0248FFF70DFE0AB082
:1010000010BD00001800002010B58AB0002407941D
:101010001C2168460894FFF7AEF814481249016095
:101020004721C0E9011440F2E731C0E903148461AB
:10103000FFF7C5FE079407A90C480894FFF7CCFCFE
:101040006020CDE900040294002269460748049418
:10105000FFF74DFE082269460448FFF748FE0348A3
:10106000FFF7DAFD0AB010BD000400405800002070
:10107000FEE7704770477047FFF7A4B930B58FB0EF
:1010800028216846FFF777F814210AA8FFF773F8BC
:1010900001210804CDE900100024029402250491E6
:1010A000CDE907504FF4E01009906846FFF7EEFADB
:1010B0000F20CDE90A056802CDE90C4002210AA8FB
:1010C0000E94FFF717FA0FB030BD00000D4801680D
:1010D00041F00101016041680B4A11404160016823
:1010E0000A4A11400160016821F4802101604168D1
:1010F00021F4FE0141604FF41F0181600449C003E7
:1011000008607047001002400000FFF8FFFFF6FE85
:1011100008ED00E00148FFF7CBBC0000980000207C
:10112000F0B502681C4B1D4D1D4E1E4F1E4C4FF05E
:10113000804C984209D0A04207D0604505D0A84213
:1011400003D0B04201D0B84204D122F0700E4A68F8
:1011500042EA0E02984209D0A04207D0604505D06D
:10116000A84203D0B04201D0B84203D122F4407566
:10117000CA682A434D6922F080022A4302608A68C5
:10118000C2620A688262984201D0A04201D1096914
:10119000016301214161F0BD002C014000040040C9
:1011A00000080040000C00400034014010B501F080
:1011B0001F030121046A99408C430462016A9A402A
:1011C0001143016210BD0000F0B5026A22F0010275
:1011D0000262036A42688469124E24F073050C6847
:1011E0002C4323F002058B682B430D4DA84201D000
:1011F000B04205D123F00807CB683B4323F004033A
:10120000A84201D0B04205D14D6922F44072154385
:101210008A692A4342608461496841630362F0BD80
:10122000002C014000340140F0B5026A22F01002A7
:101230000262026A436884690D6824F4E64444EA61
:1012400005248D6822F0200242EA05120F4D104E4F
:10125000A84201D0B04206D1CF6822F0800242EA13
:10126000071222F04002A84201D0B04207D14D69D6
:1012700023F4406343EA85038D6943EA85034360B1
:101280008461496881630262F0BD0000002C014066
:1012900000340140F0B5026A22F480720262026AF0
:1012A0004368C46922F4007224F073050C68124E7E
:1012B0002C438D6842EA05220E4DA84201D0B0426F
:1012C00006D1CF6822F4006242EA072222F480624B
:1012D000A84201D0B04207D14D6923F4405343EAFC
:1012E00005138D6943EA05134360C4614968C1630E
:1012F0000262F0BD002C01400034014030B5026AAA
:1013000022F480520262046A4268C3690D6823F4C1
:10131000E64343EA05238D6824F4005444EA053487
:10132000084DA84202D0084DA84204D14D6922F4CC
:10133000804242EA85124260C361496801640462E6
:1013400030BD0000002C014000340140FEE70907D9
:10135000090E002804DB00F1E02080F8001470473B
:1013600000F00F0000F1E02080F8141D704702E04B
:1013700008C8121F08C1002AFAD170477047002020
:1013800001E001C1121F002AFBD170471CB5FFF715
:1013900021F8FFF773FEFFF789FDFFF701FE002438
:1013A000124800941049019401604721C0E90114DA
:1013B00042F20F718461C160FFF72FFB0094694610
:1013C0000A480194FFF708FBFFF71EFE07480021BB
:1013D0008038FFF72FFD054808218038FFF72AFDE8
:1013E0000248FFF753FBFEE7001000409800002082
:1013F00000000000000000000102030406070809C5
:101400002014000800000020180000006E130008DF
:101410003814000818000020C00400007E130008E3
:1014200000000000000000000100000010000000AB
:08143000000000000024F4009C
:0400000508000131BD
:00000001FF
