:020000040800F2
:10000000A0050020450100081B1800080515000880
:1000100019180008B1010008B91D0008000000000F
:100020000000000000000000000000001F18000891
:10003000B3010008000000001D1800082118000886
:100040005F0100085F0100085F0100085F01000810
:100050005F0100085F0100085F0100085F01000800
:100060005F0100085F0100085F0100085F010008F0
:100070005F0100085F0100085F0100085F010008E0
:100080005F0100085F0100085F0100085F010008D0
:100090005F0100085F0100085F0100085F010008C0
:1000A0005F0100085F0100085F0100085F010008B0
:1000B0005F0100085F0100085F0100085F010008A0
:1000C0005F0100085F0100085F0100085F01000890
:1000D0005F010008A11D0008AD1D00085F010008B8
:1000E0005F0100085F0100085F0100085F01000870
:1000F0005F0100085F0100085F0100085F01000860
:100100005F0100085F0100085F0100085F0100084F
:100110005F0100085F010008BD1800085F010008CA
:100120005F0100085F0100085F0100085F0100082F
:10013000DFF80CD000F02AF800480047E11E000864
:10014000A00500200648804706480047FEE7FEE776
:10015000FEE7FEE7FEE7FEE7FEE7FEE7FEE7FEE777
:100160007518000831010008D2B201E000F8012B37
:10017000491EFBD270470022F6E710B513460A4627
:1001800004461946FFF7F0FF204610BD064C074D08
:1001900006E0E06840F0010394E807009847103457
:1001A000AC42F6D3FFF7C8FFB41F0008D41F000805
:1001B000FEE77047704700002DE9F05F90F82110CE
:1001C0000024022903D004218163012485E0016811
:1001D0000A6822F00E020A6001680A6822F0010231
:1001E0000A603F4E3E4FB215DFF8F4C0DFF8F090E2
:1001F000DFF8ECA0DFF8E8B0DFF8E4E00168783F72
:1002000013011502ACF1640CA9F15009AAF13C0AE2
:10021000ABF1280BAEF1140E4FF48018B14227D980
:10022000B9420ED0614512D049451DD0514518D074
:10023000594518D0714501D1424615E0294EB142C9
:1002400001D1012210E0274E1436B14201D1102213
:100250000AE0244E2836B14206D0224A3C3291426E
:1002600001D11A4600E02A461E49091F0A602BE008
:10027000B94213D0614517D0494522D051451DD010
:1002800059451DD0714501D142461AE0B14202D113
:100290004FF0807215E0134EB14201D1012210E0FF
:1002A000104E1436B14201D110220AE00D4E28360C
:1002B000B14206D00B4A3C32914201D11A4600E0CD
:1002C0002A46074980394A60012180F8211000211F
:1002D00080F82010416B01B188472046BDE8F09FAF
:1002E00080000240080402402DE9F84FDFF8C89171
:1002F000002409F1040A0AF1040B23460F270BF12D
:10030000040ED1E00125A54006EA0502AA4276D1F5
:10031000DFF8A8C14E68A6EB0C0866452BD00DDCB3
:10032000032E34D005DC36B3012E19D0022E2FD186
:100330001BE0112E16D0122E2AD119E0B8F5881F15
:1003400019D006DCB8F5803F15D0B8F5801F1FD155
:1003500011E0B8F5001F0ED0B8F5041F18D10AE05F
:10036000CB6815E0CB681B1D12E0CB6808330FE0AB
:10037000CB680C330CE08B682BB1012B4FF00803DA
:1003800003D0456104E0042302E0056100E000239E
:10039000FF2A01D8064601E000F104064FEA840571
:1003A00001D9A5F12005D6F8008007FA05FC28EA56
:1003B0000C0803FA05F548EA0508C6F800804D6800
:1003C000ED0070D53E4DAE6946F00106AE61AD69F7
:1003D00024F0030605F0010500953A4D06EB050CE7
:1003E000DCF80850A607360F07FA06F825EA0805D4
:1003F000DFF8D480404503D14FF0000825E052E0FB
:10040000DFF8C880404502D14FF001081DE0DFF859
:10041000C080404502D14FF0020816E0DFF8B480FA
:10042000404502D14FF003080FE0DFF8AC804045B3
:1004300002D14FF0040808E0DFF8A080404502D167
:100440004FF0050801E04FF0060808FA06F848EA00
:100450000508CCF808804D68D9F80060ED034D46DA
:1004600001D5164300E096432E604D68DAF800602F
:10047000AD03554601D5164300E096432E604D6806
:10048000DBF80060ED025D4601D5164300E09643BF
:100490002E604D68DEF80060AD02754601D516434A
:1004A00000E096432E60641C0A681646E2407FF422
:1004B00029AFBDE8F88F00000004014000001110D2
:1004C000001002400000014000080140000C014003
:1004D000001001400014014000180140001C0140C0
:1004E0000AB1016170470904FBE700000148806818
:1004F0007047000010000020024881680278114413
:100500008160704710000020074810B5016841F075
:1005100010010160032000F079F8002000F006F8D7
:1005200000F024F8002010BD0020024070B50D4DF1
:1005300004464FF47A712878B1FBF0F00A49096853
:10054000B1FBF0F000F0F0FA48B9102C07D200220D
:100550002146501E00F03AF800206C6070BD01206A
:1005600070BD0000100000201C0000200E4808B5DF
:10057000816941F001018161816901F0010100910E
:10058000C16941F08051C161C06900F080500090A4
:10059000052000F03BF80548416821F0E06141F09A
:1005A0008061416008BD0000001002400000014071
:1005B000002809DB00F01F02012191404009800062
:1005C00000F1E020C0F8001170470000F0B40E4BBD
:1005D0001B680C46C3F30223C3F10705042D00D9A1
:1005E0000425191D072901D2002300E0DB1E012686
:1005F00006FA05F1491E214099409E40761E16409C
:100600003143F0BC01F0D9BB0CED00E0064900F02D
:10061000070208684FF6FF03184040EA0220034A29
:1006200010430860704700000CED00E00000FA0580
:100630002DE9F0470F46050061D0434E306800F0C9
:100640000700B84209D2306820F007003843306014
:10065000306800F00700B84251D128683B4C810750
:1006600012D5400703D5606840F4E06060602878E8
:10067000000703D5606840F4605060606068A96856
:1006800020F0F000084360602878C00728D0686830
:10069000012810D02168022810D0890700292EDAFD
:1006A000616821F0030101436160FFF71FFF80468D
:1006B00041F288390DE021688903EFE78901EDE710
:1006C000FFF714FFA0EB0801494502D90320BDE85C
:1006D000F0876068696800F00C00B0EB810FEFD123
:1006E000306800F00700B8420BD9306820F00700EE
:1006F00038433060306800F00700B84201D0012074
:10070000E5E72878400705D56068E96820F4E060EF
:10071000084360602878000706D56068296920F4DE
:10072000605040EAC100606000F038F86168084A33
:10073000C1F30311515CC8400649086006480068CF
:10074000FFF7F4FE0020C2E7002002400010024044
:100750009C1F00081C0000201400002004480549CC
:1007600000684968044AC1F30221515CC8407047DF
:100770001C00002000100240AC1F0008044805497E
:1007800000684968044AC1F3C221515CC8407047FF
:100790001C00002000100240AC1F000812A185B010
:1007A0000FC98DE80F0014A0144A00680490516826
:1007B000134801F00C03042B10D0082B0ED1C1F309
:1007C0008343C9031DF803000AD5516804AAC1F385
:1007D0004041515C0A4A5043B0FBF1F005B070470C
:1007E00008494843FAE70000020304050607080920
:1007F0000A0B0C0D0E0F1010010200000010024039
:1008000000127A0000093D002DE9F84F040070D075
:100810002078C04DC00749D06868C0F38100012826
:1008200007D06868C0F38100022809D16868C00356
:1008300006D52868800339D560680028E7D035E000
:100840006068B0F5803F0BD010B1B0F5A02F11D08B
:10085000286820F480302860286820F4802002E096
:10086000286840F480302860606890B1FFF73EFE51
:1008700006460AE0286840F480202860F0E700BFC0
:10088000FFF734FE801B642873D828688003F7D5EF
:100890000CE0FFF72BFE064605E000BFFFF726FE43
:1008A000801B6428F0D828688003F7D420789A4EFB
:1008B00080074FF001094FF0000839D5686810F043
:1008C0000C0F07D06868C0F38100022809D168685E
:1008D000C00306D42868800714D52069012808D1F0
:1008E00010E02069B0B1C6F80090FFF7FFFD0746A1
:1008F00005E00AE1FFF7FAFDC01B0228C4D828680A
:100900008007F7D52868616920F0F80040EAC10047
:1009100028600DE0C6F80080FFF7E8FD074604E018
:10092000FFF7E4FDC01B022823D828688007F7D40E
:10093000207800072CD57948A169D9B1C0F800907A
:10094000FFF7D4FD074604E0FFF7D0FDC01B0228E7
:100950000FD8686A8007F7D571484FF4FA510068DC
:10096000B0FBF1F0009000BF0098411E0091FAD258
:100970000EE080E0C0F80080FFF7B8FD074604E015
:10098000FFF7B4FDC01B022875D8686A8007F7D44A
:100990002078400760D5E8690027C00008D4E869DE
:1009A00040F08050E861E869012700F08050009035
:1009B0005C480168C90513D40168834641F480711D
:1009C0000160FFF793FD824606E000BFFFF78EFD52
:1009D000A0EB0A0064284ED8DBF80000C005F5D56E
:1009E000E06801280AD008B1052813D0286A20F051
:1009F00001002862286A20F0040002E0286A40F022
:100A000001002862E06841F2883B98B1FFF76EFD73
:100A100082460BE0286A40F004002862EEE700BF3F
:100A2000FFF764FDA0EB0A0159455AD8286A8007F0
:100A3000F6D50CE0FFF75AFD824605E0FFF756FDBC
:100A4000A0EB0A0159454CD8286A8007F6D41FB19B
:100A5000E86920F08050E861E06988B36968C1F313
:100A60008101022944D00228C6F8608004D0FFF733
:100A70003DFD044638E034E0FFF738FD074604E06A
:100A8000FFF734FDC01B02282BD828688001F7D45B
:100A9000206AB0F5803F05D16868A16820F4003075
:100AA00008436860D4E908010843696821F47411B7
:100AB00008436860C6F86090FFF718FD044606E03A
:100AC00025E000BFFFF712FD001B022809D82868A7
:100AD0008001F7D51BE000BFFFF708FD001B0228CF
:100AE00002D90320BDE8F88F28688001F4D40EE015
:100AF0000128F7D06868226A00F48031914204D15D
:100B0000616A00F47010884201D00120EAE70020F9
:100B1000E8E7000000100240000042428004424228
:100B20001C0000200070004010B5401EB0F1807F16
:100B300001D3012010BD4FF0E02460610F21601748
:100B400001F03BF90020A06107202061002010BDCA
:100B50007047704770B590F83C20012A19D00124E5
:100B600000F83C4F0222427050F83C3C5A689D68A5
:100B700022F070060A684968324325F0800529434F
:100B80005A6050F83C2C9160447000210170084676
:100B900070BD022070BD10B5040003D094F83D0074
:100BA00010B107E0012010BD002084F83C00204671
:100BB00000F00CF8022084F83D00211D206800F0B0
:100BC00083FE012084F83D00002010BD08B5114AC5
:100BD00001681148914208D1816941F40061816145
:100BE000806900F40060009008BD0C4A9142FBD17E
:100BF000C16941F01001C161C069002200F010001C
:100C0000009001213620FFF7E1FCBDE808403620C6
:100C1000FFF7CEBC002C0140001002400010004045
:100C2000022180F83D1001688A6802F00702062A56
:100C300003D00A6842F001020A60012180F83D10E9
:100C4000002070470168CA6842F00102CA6000686B
:100C5000816801F00701062903D0016841F0010114
:100C600001600020704770B5044690F83C000128F0
:100C700017D0012584F83C50022084F83D002068FC
:100C8000826822F0770222F47F428260086850284E
:100C900030D00DDC20284DD005DC98B310283BD196
:100CA00048E0022070BD302844D0402834D139E0DB
:100CB000602828D0702806D0B0F5805F2CD0B0F521
:100CC000005F29D10AE0CB68D1E90121206800F05A
:100CD0004EFE2068816841F0770109E0CB68D1E9D8
:100CE0000121206800F043FE2068816841F48041C2
:100CF000816011E0CA684968206800F00DFF50214A
:100D0000206807E016E0CA684968206800F015FF0F
:100D10006021206800F035FE84F83D50002084F802
:100D20003C0070BDCA684968206800F0F5FE4021AB
:100D30002068EFE7226801461046EBE7704770B580
:100D40000446006801694FF00005C943890715D4BE
:100D5000C168C943890711D4E91E016101202077C8
:100D6000206880698007204602D0FFF7E7FF04E093
:100D700000F002F9204600F0A1F92577206801690A
:100D8000C943490717D4C168C943490713D46FF051
:100D900004010161022020772068806910F4407FFF
:100DA000204602D0FFF7CAFF04E000F0E5F8204635
:100DB00000F084F9257720680169C943090716D432
:100DC000C168C943090712D46FF00801016104200A
:100DD00020772068C0698007204602D0FFF7AEFF69
:100DE00004E000F0C9F8204600F068F92577206893
:100DF0000169C943C90617D4C168C943C90613D4D8
:100E00006FF010010161082020772068C06910F49C
:100E1000407F204602D0FFF791FF04E000F0ACF8DD
:100E2000204600F04BF9257720680169C943C907BE
:100E300008D1C168C943C90704D1891E0161204690
:100E400000F060F920680169C943090609D4C16846
:100E5000C943090605D46FF0800101612046FFF700
:100E600077FE20680169C943490609D4C168C943AE
:100E7000490605D46FF040010161204600F060F999
:100E800020680169C94389060BD4C168C943890632
:100E900007D46FF0200101612046BDE87040FFF7E4
:100EA00058BE70BD70B586B00021009101910291CD
:100EB000039100682B4902242B4D2C4EB0F1804F3A
:100EC00024D02B4A90421FD1886940F004008861E9
:100ED000886900F004000490886940F00800886187
:100EE0008869694600F0080004904020CDE90004BC
:100EF00030460394FFF7F8F90120CDE90004694674
:100F000028460394FFF7F0F906B070BD886940F0F9
:100F100008008861886900F008000490886940F042
:100F2000040088618869694600F0040004904FF469
:100F30008060CDE9000428460394FFF7D5F94FF40B
:100F40000040CDE90004694630460394FFF7CCF930
:100F50000848416821F4407141F0E06141F440717A
:100F60004160D1E700100240000C01400008014040
:100F70000004004000000140704770B5044690F83E
:100F80003C000D4601280DD0012684F83C6002206B
:100F900084F83D0042B1042A18D0082A2AD00C2A2D
:100FA0004DD139E0022070BD206800F0F3FC2068CC
:100FB000816941F0080181612068816921F00401A3
:100FC0008161206881692A69114311E0206800F07D
:100FD00011FD2068816941F40061816120688169A7
:100FE00021F480618161206881692A6941EA0221D6
:100FF000816124E0206800F033FD2068C16941F080
:101000000801C1612068C16921F00401C161206843
:10101000C1692A69114311E0206800F055FD20687C
:10102000C16941F40061C1612068C16921F4806136
:10103000C1612068C1692A6941EA0221C16184F85D
:101040003D60002084F83C0070BD10B5040003D062
:1010500094F83D0010B107E0012010BD002084F895
:101060003C00204600F00CF8022084F83D00211DD1
:10107000206800F029FC012084F83D00002010BD0C
:1010800008B501680B48B1F1804F0BD00A4A914274
:1010900007D1C16941F00201C161C06900F00200DD
:1010A000009008BDC16941F00101C161C06900F053
:1010B0000100F5E700100240000400407047000006
:1010C00010B504460068012200F044FC0B4920687A
:1010D000884202D00A49884203D1416C41F4004160
:1010E00041642068816801F00701062903D0016886
:1010F00041F001010160002010BD0000002C014002
:10110000003401400C4900680968884206D10B4848
:101110004168B1F5FA7F02DA491C4160704700214D
:1011200041608168C1F101018160012902D0002084
:1011300000F020BF0120FBE7E000002000000020BD
:101140007047704770B5026804461068D1685369EB
:1011500010F00F0F50D003F0010501F490763543E5
:101160005DD0C20705D0CA0503D5E26B42F001028B
:10117000E263420705D5DA0703D0E26B42F00202D0
:10118000E263820705D5DA0703D0E26B42F004027E
:10119000E263020705D5DA0703D0E26B42F00802EA
:1011A000E263E26B002A33D0800604D5880602D5BC
:1011B000204600F0EAFC20684069E16BC0F3801033
:1011C000090700D428B3204600F0D1FC206841690B
:1011D00049061AD5416921F040014161606BA0B117
:1011E0001B494163606BFEF7E7FF002810D0606B7E
:1011F000416BBDE870400847830610D58B060ED5BD
:101200002046BDE8704000F0C0BC2046FFF799FFC3
:1012100070BD2046FFF795FF0020E06370BD030618
:1012200006D50B0604D52046BDE8704000F054BD3D
:101230004006F3D54806F1D5D168204621F040019B
:10124000D160202184F8391000F05BF970BD0000F6
:101250005F1B000870B5040004D094F83900002525
:1012600010B106E0012070BD84F83850204600F02F
:1012700023F8242084F839002068C16821F4005143
:10128000C160204600F0CCFC2068016921F4904147
:1012900001612068416921F02A0141612068C1682B
:1012A00041F40051C160E563202084F8390084F8DE
:1012B0003A00002070BD000070B586B00024009494
:1012C0000194029403942E4E03682E4902200322B7
:1012D0002D4DB34226D18B6943F480438B618B69DA
:1012E00003F4804304938B6943F004038B618969A1
:1012F000039201F0040104910102CDE90010694656
:101300002846FEF7F1FF2815CDE900046946284676
:101310000294FEF7E9FF012200212520FFF756F98C
:10132000252028E0194EB34227D1CB6943F400337E
:10133000CB61CB6903F4003304938B6943F004035E
:101340008B618969039201F0040104910421CDE9C4
:10135000001069462846FEF7C7FF0820CDE90004C3
:10136000694628460294FEF7BFFF00221146262058
:10137000FFF72CF92620FFF71BF906B070BD00001F
:1013800000380140001002400008014000440040C5
:1013900090F83A30202B22D1F9B1F2B190F83830E0
:1013A000012B1CD081628285C2850021C16322226B
:1013B00080F83A2080F838100168CA6842F48072D8
:1013C000CA6001684A6942F001024A610068C16866
:1013D00041F02001C16000207047012070470220C9
:1013E0007047000038B5054614A04FF6FF7400683A
:1013F0000090234601221249284600F025F80028D3
:10140000F7D1234602226946284600F01DF800283D
:10141000F7D10B490122491C2846FFF7B9FF084CB8
:101420000848E16809B1002200E001220421FFF729
:1014300057F8E068C0F10100E06038BD0D0A000017
:1014400000000020001401402DE9F843044690F804
:1014500039001F4616460D46202850D1A5B19EB131
:1014600094F8380001284AD0012084F838004FF061
:101470000008C4F83C80212084F83900FFF736F8D2
:10148000A6848146E68426E00120BDE8F883E08C4E
:10149000401EE084A0684B46B0F5805F4FF000022C
:1014A0004FF080012046009703D000F046FCE8B9D9
:1014B0000DE000F042FCC8B928882168C0F308009C
:1014C0004860206908B16D1C05E0AD1C03E021688F
:1014D00015F8010B4860E08C0028D8D14B4600225B
:1014E00040212046009700F028FC08B10320CCE7FB
:1014F000202084F8390084F838800020C5E70220D5
:10150000C3E77047FEE700002DE9F04F85B00024E7
:1015100035480094019402940394816941F02001BC
:101520008161816901F020010491816941F0040128
:101530008161816901F004010491816941F0080130
:101540008161816901F008010491816941F0100114
:1015500081618069DFF8949000F010004FF47045CD
:101560000490002229464846FEF7BAFFDFF880A023
:10157000AF11002239465046FEF7B2FFDFF874B0D3
:101580004FF48078002241465846FEF7A9FF00221A
:1015900004211948FEF7A4FF0095022601250396B1
:1015A000CDE9015469464846FEF79EFE0097039632
:1015B000CDE9015469465046FEF796FECDF800800D
:1015C0000396CDE9015469465846FEF78DFE042086
:1015D000CDE90005CDE9024669460748FEF784FEDD
:1015E00005B0BDE8F08F000000100240000C014083
:1015F00000100140000801400014014010B586B001
:10160000002417480094019402940394049413490D
:10161000059401604721C0E901144FF6FF71C0E94C
:10162000031444618461FFF7B6FA08B1FEF7C2FD06
:101630004FF48050009069460948FFF714FB08B149
:10164000FEF7B8FD049404A905480594FFF782FA53
:10165000002801D0FEF7AEFD06B010BD002C014001
:101660002000002010B58AB0002407941C21684691
:101670000894FEF780FD1A484FF080410160472131
:10168000C0E9011440F2E731C0E903148461FFF7B7
:10169000DCFC08B1FEF78EFD079407A910480894FA
:1016A000FFF758FA08B1FEF785FD6020CDE9000488
:1016B0000294002269460A480494FFF75EFC08B1D0
:1016C000FEF778FD082269460548FFF756FC08B189
:1016D000FEF770FD0248FFF7E5FB0AB010BD000001
:1016E0006000002010B58AB0002407941C216846D1
:1016F0000894FEF740FD1A48184901604721C0E9E7
:10170000011440F2E731C0E903148461FFF79DFC46
:1017100008B1FEF74FFD079407A911480894FFF799
:1017200019FA08B1FEF746FD6020CDE900040294E5
:10173000002269460A480494FFF71FFC08B1FEF72F
:1017400039FD082269460648FFF717FC08B1FEF785
:1017500031FD0348FFF7A6FB0AB010BD00040040AE
:10176000A00000201CB500240E4800940C490194F0
:1017700001604721C0E9011442F20F718461C16028
:10178000FFF709FA08B1FEF715FD00946946054810
:101790000194FFF7DFF9002801D0FEF70BFD1CBD17
:1017A00000100040E00000200C4810B50A4901601C
:1017B0004FF4E1314160002181600C22C160C0E939
:1017C00004128161C161FFF745FD002803D0BDE827
:1017D0001040FEF7EFBC10BD003801402001002092
:1017E0000C4810B50A4901604FF4E1314160002115
:1017F00081600C22C160C0E904128161C161FFF700
:1018000029FD002803D0BDE81040FEF7D3BC10BD71
:101810000044004060010020FEE7704770477047B9
:10182000FEF76ABE30B58FB028216846FEF7A3FCEC
:1018300014210AA8FEF79FFC01210804CDE900103D
:101840000024029402250491CDE907504FF4E010E2
:1018500009906846FEF7D8FF0F20CDE90A05680217
:10186000CDE90C4002210AA80E94FEF7E1FE0FB06C
:1018700030BD00000D48016841F001010160416880
:101880000B4A1140416001680A4A11400160016839
:1018900021F480210160416821F4FE0141604FF490
:1018A0001F0181600449C0030860704700100240B6
:1018B0000000FFF8FFFFF6FE08ED00E00148FFF72B
:1018C0003EBA0000E0000020F0B502681C4B1D4D40
:1018D0001D4E1E4F1E4C4FF0804C984209D0A04226
:1018E00007D0604505D0A84203D0B04201D0B8422D
:1018F00004D122F0700E4A6842EA0E02984209D0E2
:10190000A04207D0604505D0A84203D0B04201D024
:10191000B84203D122F44075CA682A434D6922F0C7
:1019200080022A4302608A68C2620A688262984220
:1019300001D0A04201D10969016301214161F0BDDB
:10194000002C01400004004000080040000C004052
:101950000034014010B501F01F030121046A9940D1
:101960008C430462016A9A401143016210BD10B5B4
:10197000846842EA032224F47F440A4322438260BB
:1019800010BD826822F070020A4342F007018160B4
:1019900070470000F0B5026A22F001020262036A99
:1019A00042688469124E24F073050C682C4323F0BE
:1019B00002058B682B430D4DA84201D0B04205D1E2
:1019C00023F00807CB683B4323F00403A84201D06F
:1019D000B04205D14D6922F4407215438A692A4309
:1019E00042608461496841630362F0BD002C01409C
:1019F00000340140F0B5026A22F010020262026A6D
:101A0000436884690D6824F4E64444EA05248D683B
:101A100022F0200242EA05120F4D104EA84201D0DA
:101A2000B04206D1CF6822F0800242EA071222F0CB
:101A30004002A84201D0B04207D14D6923F440636F
:101A400043EA85038D6943EA8503436084614968FD
:101A500081630262F0BD0000002C014000340140AF
:101A6000F0B5026A22F480720262026A4368C469B5
:101A700022F4007224F073050C68124E2C438D681A
:101A800042EA05220E4DA84201D0B04206D1CF68ED
:101A900022F4006242EA072222F48062A84201D0C6
:101AA000B04207D14D6923F4405343EA05138D69D1
:101AB00043EA05134360C4614968C1630262F0BD33
:101AC000002C01400034014030B5026A22F48052FB
:101AD0000262046A4268C3690D6823F4E64343EA7C
:101AE00005238D6824F4005444EA0534084DA842C7
:101AF00002D0084DA84204D14D6922F4804242EA46
:101B000085124260C36149680164046230BD00000F
:101B1000002C01400034014010B5036A046A24F02F
:101B200001040462846924F0F00444EA021423F0FE
:101B30000A020A438461026210BD10B5036A23F0F1
:101B4000100303628369046A23F4704343EA023298
:101B500024F0A00343EA01118261016210BD10B5B7
:101B6000406A0021C185C184FFF7EBFA10BD01680E
:101B7000CA6822F49072CA6001684A6922F00102C0
:101B80004A61202180F83A10704710B590F83A1059
:101B9000222901D0022010BD8168B1F5805F11D0EB
:101BA0000169002901681FD0496801F07F03816A3B
:101BB0004A1C82620B70C18D491E0904090CC18543
:101BC00018D02BE00269816A002A0268526805D0A9
:101BD000D2B20A80816A491C8162ECE7C2F3080232
:101BE0000A80816A891CF7E74A68816A4B1C836214
:101BF0000A70E0E70168CA6822F02002CA60016842
:101C0000CA6822F48072CA6001684A6922F001023F
:101C10004A61202180F83A10FFF7E4FB002010BD54
:101C20002DE9F041044600680169E26821F4405161
:101C3000114301612169A068084361690843216873
:101C4000CA6841F20C639A430243CA602068416942
:101C5000A26921F44071114341611E492068642545
:101C60003226884202D1FEF789FD01E0FEF776FDBB
:101C700000EBC00101EB001160686FF018078000F5
:101C8000B1FBF0F2B2FBF5F2B1FBF0F37A4303EBF8
:101C90008202B1FBF0F306EB0212B2FBF5F2B3FBEA
:101CA000F5F302F0F00202EB0312B1FBF0F3B1FB2B
:101CB000F0F0B0FBF5F0784303EB800006EB00108A
:101CC000B0FBF5F0216800F00F0010448860BDE81B
:101CD000F08100000038014090F83910212901D02E
:101CE000022070478168B1F5805F016A0BD04A1C01
:101CF0000262026809785160C18C491E0904090C0E
:101D0000C1840ED017E009880268C1F30801516050
:101D100001690029016A02D0491C0162ECE7891CB3
:101D2000FBE70168CA6822F08002CA600068C168E7
:101D300041F04001C160002070472DE9F041984614
:101D400017460E460446069D1DE0681C1BD02DB1AB
:101D5000FEF7CCFBA0EB0800A84214D92068C168AC
:101D600021F4D071C1602068416921F00101416115
:101D7000202084F8390084F83A00002084F83800E4
:101D80000320BDE8F0812068006836EA000004D036
:101D90000020B842D9D00020F3E70120F9E7000085
:101DA0000148FFF7CFB90000200100200148FFF7EC
:101DB000C9B9000060010020FEE70907090E0028EC
:101DC00004DB00F1E02080F80014704700F00F0001
:101DD00000F1E02080F8141D704702E008C8121FCF
:101DE00008C1002AFAD170477047002001E001C104
:101DF000121F002AFBD170472DE9F0410246364CF4
:101E00003648A3155D0046144FF4805C4FF4804EB5
:101E1000DF0181B101291CD0012A46D0022A4BD012
:101E2000032A50D0042A55D1002271460446FEF7F9
:101E300057FB00221BE0012A38D0022A05D0032AD2
:101E400005D0042A46D10122EFE7012235E0012224
:101E50003AE0012A0DD0022A13D0032A19D0042A0D
:101E600038D1002271460446FEF73AFB012239467A
:101E700016E0002240212046FEF732FB012280219D
:101E80000EE0002219462046FEF72AFB01222946D1
:101E900006E0002261460446FEF722FB012231469D
:101EA0002046BDE8F041FEF71BBB00224021204642
:101EB000FEF716FB0022E2E7002219462046FEF755
:101EC0000FFB0022E3E7002261460446FEF708FB11
:101ED0000022E4E7BDE8F08100100140000C014061
:101EE000FEF712FBFFF79EFCFFF70EFBFFF7BAFBB6
:101EF000FFF738FCFFF782FBFFF7F4FBFFF770FCFE
:101F0000FFF752FC00211348FFF7DAF808211148C7
:101F1000FFF7D6F800211048FFF7D2F808210E4845
:101F2000FFF7CEF80D48FEF78DFE0D48FEF778FE60
:101F300001220C490C48FFF72BFA0A490122491CDF
:101F40000A48FFF725FA012204210948FEF7C8FADA
:101F5000FEE7000060000020A0000020E00000205C
:101F6000200000200000002020010020600100204F
:101F70000014014010B5044601460120FFF73CFF64
:101F800021460220FFF738FF21460320FFF734FFE8
:101F90002146BDE810400420FFF72EBF00000000DE
:101FA0000000000001020304060708090000000009
:101FB00001020304D41F00080000002020000000DC
:101FC000DA1D0008F41F0008200000208005000032
:101FD000EA1D0008000000000000000000000000F2
:101FE00000000000010000001000000000000000E0
:041FF0000024F400D5
:0400000508000131BD
:00000001FF
