:020000040800F2
:10000000E00400204501000897130008651100086E
:1000100095130008B1010008C7180008000000008F
:100020000000000000000000000000009B1300081A
:10003000B301000800000000991300089D13000898
:100040005F0100085F0100085F0100085F01000810
:100050005F0100085F0100085F0100085F01000800
:100060005F0100085F0100085F0100085F010008F0
:100070005F0100085F0100085F0100085F010008E0
:100080005F0100085F0100085F0100085F010008D0
:100090005F0100085F0100085F0100085F010008C0
:1000A0005F0100085F0100085F0100085F010008B0
:1000B0005F0100085F0100085F0100085F010008A0
:1000C0005F0100085F0100085F0100085F01000890
:1000D0005F0100085F0100085F0100085F01000880
:1000E0005F0100085F0100085F0100085F01000870
:1000F0005F0100085F0100085F0100085F01000860
:100100005F0100085F0100085F0100085F0100084F
:10011000651600085F0100085F0100085F01000824
:100120005F0100085F0100085F0100085F0100082F
:10013000DFF80CD000F02AF800480047691A0008E0
:10014000E00400200648804706480047FEE7FEE737
:10015000FEE7FEE7FEE7FEE7FEE7FEE7FEE7FEE777
:10016000F113000831010008D2B201E000F8012BC0
:10017000491EFBD270470022F6E710B513460A4627
:1001800004461946FFF7F0FF204610BD064C074D08
:1001900006E0E06840F0010394E807009847103457
:1001A000AC42F6D3FFF7C8FF541B0008741B0008CD
:1001B000FEE77047704700002DE9F05F90F82110CE
:1001C0000024022903D004218163012485E0016811
:1001D0000A6822F00E020A6001680A6822F0010231
:1001E0000A603F4E3E4FB215DFF8F4C0DFF8F090E2
:1001F000DFF8ECA0DFF8E8B0DFF8E4E00168783F72
:1002000013011502ACF1640CA9F15009AAF13C0AE2
:10021000ABF1280BAEF1140E4FF48018B14227D980
:10022000B9420ED0614512D049451DD0514518D074
:10023000594518D0714501D1424615E0294EB142C9
:1002400001D1012210E0274E1436B14201D1102213
:100250000AE0244E2836B14206D0224A3C3291426E
:1002600001D11A4600E02A461E49091F0A602BE008
:10027000B94213D0614517D0494522D051451DD010
:1002800059451DD0714501D142461AE0B14202D113
:100290004FF0807215E0134EB14201D1012210E0FF
:1002A000104E1436B14201D110220AE00D4E28360C
:1002B000B14206D00B4A3C32914201D11A4600E0CD
:1002C0002A46074980394A60012180F8211000211F
:1002D00080F82010416B01B188472046BDE8F09FAF
:1002E00080000240080402402DE9F84FDFF8C89171
:1002F000002409F1040A0AF1040B23460F270BF12D
:10030000040ED1E00125A54006EA0502AA4276D1F5
:10031000DFF8A8C14E68A6EB0C0866452BD00DDCB3
:10032000032E34D005DC36B3012E19D0022E2FD186
:100330001BE0112E16D0122E2AD119E0B8F5881F15
:1003400019D006DCB8F5803F15D0B8F5801F1FD155
:1003500011E0B8F5001F0ED0B8F5041F18D10AE05F
:10036000CB6815E0CB681B1D12E0CB6808330FE0AB
:10037000CB680C330CE08B682BB1012B4FF00803DA
:1003800003D0456104E0042302E0056100E000239E
:10039000FF2A01D8064601E000F104064FEA840571
:1003A00001D9A5F12005D6F8008007FA05FC28EA56
:1003B0000C0803FA05F548EA0508C6F800804D6800
:1003C000ED0070D53E4DAE6946F00106AE61AD69F7
:1003D00024F0030605F0010500953A4D06EB050CE7
:1003E000DCF80850A607360F07FA06F825EA0805D4
:1003F000DFF8D480404503D14FF0000825E052E0FB
:10040000DFF8C880404502D14FF001081DE0DFF859
:10041000C080404502D14FF0020816E0DFF8B480FA
:10042000404502D14FF003080FE0DFF8AC804045B3
:1004300002D14FF0040808E0DFF8A080404502D167
:100440004FF0050801E04FF0060808FA06F848EA00
:100450000508CCF808804D68D9F80060ED034D46DA
:1004600001D5164300E096432E604D68DAF800602F
:10047000AD03554601D5164300E096432E604D6806
:10048000DBF80060ED025D4601D5164300E09643BF
:100490002E604D68DEF80060AD02754601D516434A
:1004A00000E096432E60641C0A681646E2407FF422
:1004B00029AFBDE8F88F00000004014000001110D2
:1004C000001002400000014000080140000C014003
:1004D000001001400014014000180140001C0140C0
:1004E0000AB1016170470904FBE700000148806818
:1004F0007047000000000020024881680278114423
:100500008160704700000020074810B5016841F085
:1005100010010160032000F079F8002000F006F8D7
:1005200000F024F8002010BD0020024070B50D4DF1
:1005300004464FF47A712878B1FBF0F00A49096853
:10054000B1FBF0F000F0F0FA48B9102C07D200220D
:100550002146501E00F03AF800206C6070BD01206A
:1005600070BD0000000000200C0000200E4808B5FF
:10057000816941F001018161816901F0010100910E
:10058000C16941F08051C161C06900F080500090A4
:10059000052000F03BF80548416821F0E06141F09A
:1005A0008061416008BD0000001002400000014071
:1005B000002809DB00F01F02012191404009800062
:1005C00000F1E020C0F8001170470000F0B40E4BBD
:1005D0001B680C46C3F30223C3F10705042D00D9A1
:1005E0000425191D072901D2002300E0DB1E012686
:1005F00006FA05F1491E214099409E40761E16409C
:100600003143F0BC01F060B90CED00E0064900F0A8
:10061000070208684FF6FF03184040EA0220034A29
:1006200010430860704700000CED00E00000FA0580
:100630002DE9F0470F46050061D0434E306800F0C9
:100640000700B84209D2306820F007003843306014
:10065000306800F00700B84251D128683B4C810750
:1006600012D5400703D5606840F4E06060602878E8
:10067000000703D5606840F4605060606068A96856
:1006800020F0F000084360602878C00728D0686830
:10069000012810D02168022810D0890700292EDAFD
:1006A000616821F0030101436160FFF71FFF80468D
:1006B00041F288390DE021688903EFE78901EDE710
:1006C000FFF714FFA0EB0801494502D90320BDE85C
:1006D000F0876068696800F00C00B0EB810FEFD123
:1006E000306800F00700B8420BD9306820F00700EE
:1006F00038433060306800F00700B84201D0012074
:10070000E5E72878400705D56068E96820F4E060EF
:10071000084360602878000706D56068296920F4DE
:10072000605040EAC100606000F038F86168084A33
:10073000C1F30311515CC8400649086006480068CF
:10074000FFF7F4FE0020C2E7002002400010024044
:100750003C1B00080C000020040000200448054950
:1007600000684968044AC1F30221515CC8407047DF
:100770000C000020001002404C1B000804480549F2
:1007800000684968044AC1F3C221515CC8407047FF
:100790000C000020001002404C1B000812A185B084
:1007A0000FC98DE80F0014A0144A00680490516826
:1007B000134801F00C03042B10D0082B0ED1C1F309
:1007C0008343C9031DF803000AD5516804AAC1F385
:1007D0004041515C0A4A5043B0FBF1F005B070470C
:1007E00008494843FAE70000020304050607080920
:1007F0000A0B0C0D0E0F1010010200000010024039
:1008000000127A0000093D002DE9F84F040070D075
:100810002078C04DC00749D06868C0F38100012826
:1008200007D06868C0F38100022809D16868C00356
:1008300006D52868800339D560680028E7D035E000
:100840006068B0F5803F0BD010B1B0F5A02F11D08B
:10085000286820F480302860286820F4802002E096
:10086000286840F480302860606890B1FFF73EFE51
:1008700006460AE0286840F480202860F0E700BFC0
:10088000FFF734FE801B642873D828688003F7D5EF
:100890000CE0FFF72BFE064605E000BFFFF726FE43
:1008A000801B6428F0D828688003F7D420789A4EFB
:1008B00080074FF001094FF0000839D5686810F043
:1008C0000C0F07D06868C0F38100022809D168685E
:1008D000C00306D42868800714D52069012808D1F0
:1008E00010E02069B0B1C6F80090FFF7FFFD0746A1
:1008F00005E00AE1FFF7FAFDC01B0228C4D828680A
:100900008007F7D52868616920F0F80040EAC10047
:1009100028600DE0C6F80080FFF7E8FD074604E018
:10092000FFF7E4FDC01B022823D828688007F7D40E
:10093000207800072CD57948A169D9B1C0F800907A
:10094000FFF7D4FD074604E0FFF7D0FDC01B0228E7
:100950000FD8686A8007F7D571484FF4FA510068DC
:10096000B0FBF1F0009000BF0098411E0091FAD258
:100970000EE080E0C0F80080FFF7B8FD074604E015
:10098000FFF7B4FDC01B022875D8686A8007F7D44A
:100990002078400760D5E8690027C00008D4E869DE
:1009A00040F08050E861E869012700F08050009035
:1009B0005C480168C90513D40168834641F480711D
:1009C0000160FFF793FD824606E000BFFFF78EFD52
:1009D000A0EB0A0064284ED8DBF80000C005F5D56E
:1009E000E06801280AD008B1052813D0286A20F051
:1009F00001002862286A20F0040002E0286A40F022
:100A000001002862E06841F2883B98B1FFF76EFD73
:100A100082460BE0286A40F004002862EEE700BF3F
:100A2000FFF764FDA0EB0A0159455AD8286A8007F0
:100A3000F6D50CE0FFF75AFD824605E0FFF756FDBC
:100A4000A0EB0A0159454CD8286A8007F6D41FB19B
:100A5000E86920F08050E861E06988B36968C1F313
:100A60008101022944D00228C6F8608004D0FFF733
:100A70003DFD044638E034E0FFF738FD074604E06A
:100A8000FFF734FDC01B02282BD828688001F7D45B
:100A9000206AB0F5803F05D16868A16820F4003075
:100AA00008436860D4E908010843696821F47411B7
:100AB00008436860C6F86090FFF718FD044606E03A
:100AC00025E000BFFFF712FD001B022809D82868A7
:100AD0008001F7D51BE000BFFFF708FD001B0228CF
:100AE00002D90320BDE8F88F28688001F4D40EE015
:100AF0000128F7D06868226A00F48031914204D15D
:100B0000616A00F47010884201D00120EAE70020F9
:100B1000E8E7000000100240000042428004424228
:100B20000C0000200070004010B5401EB0F1807F26
:100B300001D3012010BD4FF0E02460610F21601748
:100B400000F0C2FE0020A06107202061002010BD3F
:100B500070B590F83C20012A19D0012400F83C4FD0
:100B60000222427050F83C3C5A689D6822F07006A0
:100B70000A684968324325F0800529435A6050F8D5
:100B80003C2C9160447000210170084670BD022029
:100B900070BD022180F83D1001688A6802F00702EA
:100BA000062A03D00A6842F001020A60012180F897
:100BB0003D1000207047000070B586B00021009104
:100BC00001910291039100682B4902242B4D2C4E78
:100BD000B0F1804F24D02B4A90421FD1886940F059
:100BE00004008861886900F004000490886940F07E
:100BF000080088618869694600F008000490402078
:100C0000CDE9000430460394FFF76EFB0120CDE9E7
:100C10000004694628460394FFF766FB06B070BDE2
:100C2000886940F008008861886900F00800049035
:100C3000886940F0040088618869694600F0040012
:100C400004904FF48060CDE9000428460394FFF738
:100C50004BFB4FF40040CDE9000469463046039455
:100C6000FFF742FB0848416821F4407141F0E06120
:100C700041F440714160D1E700100240000C014096
:100C800000080140000400400000014070B5044627
:100C900090F83C000D4601280DD0012684F83C60F8
:100CA000022084F83D0042B1042A18D0082A2AD034
:100CB0000C2A4DD139E0022070BD206800F010FCF4
:100CC0002068816941F0080181612068816921F013
:100CD00004018161206881692A69114311E020685B
:100CE00000F02EFC2068816941F400618161206878
:100CF000816921F480618161206881692A6941EA02
:100D00000221816124E0206800F050FC2068C16964
:100D100041F00801C1612068C16921F00401C1618D
:100D20002068C1692A69114311E0206800F072FC53
:100D30002068C16941F40061C1612068C16921F482
:100D40008061C1612068C1692A6941EA0221C161EB
:100D500084F83D60002084F83C0070BD10B50400AC
:100D600003D094F83D0010B107E0012010BD002031
:100D700084F83C00204600F00DF8022084F83D0085
:100D8000211D206800F058FB012084F83D00002060
:100D900010BD000008B501680B48B1F1804F0BD0C1
:100DA0000A4A914207D1C16941F00201C161C0699B
:100DB00000F00200009008BDC16941F00101C1616D
:100DC000C06900F00100F5E7001002400004004097
:100DD00010B504460068012200F074FB0B4920683E
:100DE000884202D00A49884203D1416C41F4004153
:100DF00041642068816801F00701062903D0016879
:100E000041F001010160002010BD0000002C0140F4
:100E1000003401407047000070B502680446106855
:100E2000D168536910F00F0F50D003F0010501F4A1
:100E3000907635435DD0C20705D0CA0503D5E26B75
:100E400042F00102E263420705D5DA0703D0E26B04
:100E500042F00202E263820705D5DA0703D0E26BB3
:100E600042F00402E263020705D5DA0703D0E26B21
:100E700042F00802E263E26B002A33D0800604D518
:100E8000880602D5204600F013FC20684069E16B1B
:100E9000C0F38010090700D428B3204600F0FAFB05
:100EA0002068416949061AD5416921F04001416134
:100EB000606BA0B11B494163606BFFF77DF90028AF
:100EC00010D0606B416BBDE870400847830610D5B9
:100ED0008B060ED52046BDE8704000F0E9BB2046E9
:100EE000FFF798FF70BD2046FFF794FF0020E063F6
:100EF00070BD030606D50B0604D52046BDE870403C
:100F000000F07EBC4006F3D54806F1D5D1682046F6
:100F100021F04001D160202184F8391000F021F93E
:100F200070BD00008516000870B5040004D094F868
:100F30003900002510B106E0012070BD84F838505A
:100F4000204600F023F8242084F839002068C16886
:100F500021F40051C160204600F0F6FB20680169D1
:100F600021F4904101612068416921F02A01416129
:100F70002068C16841F40051C160E563202084F815
:100F8000390084F83A00002070BD000030B585B00B
:100F90000024009401940294039400681849884244
:100FA0002CD11848C16941F40021C161C16901F423
:100FB00000210491816941F0100181618069124D25
:100FC00000F0100004904FF4806000900220019027
:100FD0000320039069462846FFF786F9E814CDE917
:100FE0000004694628460294FFF77EF90022114664
:100FF0003420FFF7EBFA3420FFF7DAFA05B030BD02
:10100000004C0040001002400010014090F83A30BF
:10101000202B22D1F9B1F2B190F83830012B1CD03D
:1010200081628285C2850021C163222280F83A2034
:1010300080F838100168CA6842F48072CA6001689A
:101040004A6942F001024A610068C16841F020012A
:10105000C1600020704701207047022070470000E7
:101060001CB504460D480D490078497830383039B0
:10107000022802DD00F047FD03E06422514300F046
:1010800029FD07A14FF6FF73D1E90001CDE9000169
:1010900007226946204600F007F81CBD100000201A
:1010A000676F7420697400002DE9F843044690F8D6
:1010B00039001F4616460D46202850D1A5B19EB1D5
:1010C00094F8380001284AD0012084F838004FF005
:1010D0000008C4F83C80212084F83900FFF706FAA4
:1010E000A6848146E68426E00120BDE8F883E08CF2
:1010F000401EE084A0684B46B0F5805F4FF00002D0
:101100004FF080012046009703D000F0AAFBE8B919
:101110000DE000F0A6FBC8B928882168C0F30800DC
:101120004860206908B16D1C05E0AD1C03E0216832
:1011300015F8010B4860E08C0028D8D14B460022FE
:1011400040212046009700F08CFB08B10320CCE73B
:10115000202084F8390084F838800020C5E7022078
:10116000C3E77047FEE700002DE9F04F85B000248B
:1011700035480094019402940394816941F0200160
:101180008161816901F020010491816941F00401CC
:101190008161816901F004010491816941F00801D4
:1011A0008161816901F008010491816941F01001B8
:1011B00081618069DFF8949000F010004FF4704571
:1011C0000490002229464846FFF78AF9DFF880A0FC
:1011D000AF11002239465046FFF782F9DFF874B0AC
:1011E0004FF48078002241465846FFF779F90022F3
:1011F00004211948FFF774F900950226012503968A
:10120000CDE9015469464846FFF76EF8009703960A
:10121000CDE9015469465046FFF766F8CDF80080E5
:101220000396CDE9015469465846FFF75DF804205E
:10123000CDE90005CDE9024669460748FFF754F8B5
:1012400005B0BDE8F08F000000100240000C014026
:1012500000100140000801400014014010B58AB0A0
:10126000002407941C2168460894FEF784FF1A485E
:101270004FF0804101604721C0E9011440F2E7319D
:10128000C0E903148461FFF769FD08B1FEF792FF1E
:10129000079407A910480894FFF75AFC08B1FEF715
:1012A00089FF6020CDE900040294002269460A48C3
:1012B0000494FFF7EBFC08B1FEF77CFF08226946B7
:1012C0000548FFF7E3FC08B1FEF774FF0248FFF79B
:1012D00073FC0AB010BD00001C00002010B58AB0DD
:1012E000002407941C2168460894FEF744FF1A481E
:1012F000184901604721C0E9011440F2E731C0E913
:1013000003148461FFF72AFD08B1FEF753FF079429
:1013100007A911480894FFF71BFC08B1FEF74AFF24
:101320006020CDE900040294002269460A48049432
:10133000FFF7ACFC08B1FEF73DFF082269460648FE
:10134000FFF7A4FC08B1FEF735FF0348FFF734FCB4
:101350000AB010BD000400405C0000200C4810B52D
:101360000A4901604FF4E1314160002181600C22A3
:10137000C160C0E904128161C161FFF7D5FD002899
:1013800003D0BDE81040FEF715BF10BD004C004073
:101390009C000020FEE7704770477047FFF7ACB82D
:1013A00030B58FB028216846FEF7E5FE14210AA863
:1013B000FEF7E1FE01210804CDE9001000240294AB
:1013C00002250491CDE907504FF4E01009906846DA
:1013D000FFF71AFA0F20CDE90A056802CDE90C40A3
:1013E00002210AA80E94FFF723F90FB030BD0000C8
:1013F0000D48016841F00101016041680B4A11404C
:10140000416001680A4A11400160016821F48021AD
:101410000160416821F4FE0141604FF41F018160C9
:101420000449C00308607047001002400000FFF844
:10143000FFFFF6FE08ED00E0F0B502681C4B1D4D05
:101440001D4E1E4F1E4C4FF0804C984209D0A042BA
:1014500007D0604505D0A84203D0B04201D0B842C1
:1014600004D122F0700E4A6842EA0E02984209D076
:10147000A04207D0604505D0A84203D0B04201D0B9
:10148000B84203D122F44075CA682A434D6922F05C
:1014900080022A4302608A68C2620A6882629842B5
:1014A00001D0A04201D10969016301214161F0BD70
:1014B000002C01400004004000080040000C0040E7
:1014C0000034014010B501F01F030121046A994066
:1014D0008C430462016A9A401143016210BD00000E
:1014E000F0B5026A22F001020262036A426884696E
:1014F000124E24F073050C682C4323F002058B6810
:101500002B430D4DA84201D0B04205D123F008076E
:10151000CB683B4323F00403A84201D0B04205D17D
:101520004D6922F4407215438A692A4342608461FE
:10153000496841630362F0BD002C01400034014062
:10154000F0B5026A22F010020262026A43688469FE
:101550000D6824F4E64444EA05248D6822F0200254
:1015600042EA05120F4D104EA84201D0B04206D1FA
:10157000CF6822F0800242EA071222F04002A8421D
:1015800001D0B04207D14D6923F4406343EA85039B
:101590008D6943EA8503436084614968816302621F
:1015A000F0BD0000002C014000340140F0B5026A9B
:1015B00022F480720262026A4368C46922F40072F3
:1015C00024F073050C68124E2C438D6842EA052204
:1015D0000E4DA84201D0B04206D1CF6822F400627D
:1015E00042EA072222F48062A84201D0B04207D129
:1015F0004D6923F4405343EA05138D6943EA05130B
:101600004360C4614968C1630262F0BD002C0140BF
:101610000034014030B5026A22F480520262046A4A
:101620004268C3690D6823F4E64343EA05238D68E5
:1016300024F4005444EA0534084DA84202D0084D71
:10164000A84204D14D6922F4804242EA85124260E8
:10165000C36149680164046230BD0000002C014090
:101660000034014010B50548FFF7D6FBBDE8104037
:10167000022203490148FFF7C9BC00009C0000207A
:101680001000002010B5406A0021C185C184FFF719
:10169000C1FB10BD0168CA6822F49072CA6001687B
:1016A0004A6922F001024A61202180F83A1070470D
:1016B00010B590F83A10222901D0022010BD81689F
:1016C000B1F5805F11D00169002901681FD0496818
:1016D00001F07F03816A4A1C82620B70C18D491E32
:1016E0000904090CC18518D02BE00269816A002A1F
:1016F0000268526805D0D2B20A80816A491C8162B0
:10170000ECE7C2F308020A80816A891CF7E74A689D
:10171000816A4B1C83620A70E0E70168CA6822F0A4
:101720002002CA600168CA6822F48072CA60016837
:101730004A6922F001024A61202180F83A10FFF73D
:101740008FFC002010BD00002DE9F0410446006828
:101750000169E26821F44051114301612169A068E7
:101760000843616908432168CA6841F20C639A43DF
:101770000243CA6020684169A26921F440711143A3
:1017800041611E49206864253226884202D1FEF755
:10179000F5FF01E0FEF7E2FF00EBC00101EB0011F5
:1017A00060686FF018078000B1FBF0F2B2FBF5F251
:1017B000B1FBF0F37A4303EB8202B1FBF0F306EBEB
:1017C0000212B2FBF5F2B3FBF5F302F0F00202EB0A
:1017D0000312B1FBF0F3B1FBF0F0B0FBF5F078438E
:1017E00003EB800006EB0010B0FBF5F0216800F081
:1017F0000F0010448860BDE8F0810000003801400F
:1018000090F83910212901D0022070478168B1F584
:10181000805F016A0BD04A1C02620268097851603D
:10182000C18C491E0904090CC1840ED017E0098837
:101830000268C1F30801516001690029016A02D000
:10184000491C0162ECE7891CFBE70168CA6822F0C9
:101850008002CA600068C16841F04001C160002098
:1018600070472DE9F041984617460E460446069DFE
:101870001DE0681C1BD02DB1FEF738FEA0EB080060
:10188000A84214D92068C16821F4D071C1602068D1
:10189000416921F001014161202084F8390084F878
:1018A0003A00002084F838000320BDE8F081206869
:1018B000006836EA000004D00020B842D9D00020E9
:1018C000F3E70120F9E7FEE70907090E002804DB2A
:1018D00000F1E02080F80014704700F00F0000F1E4
:1018E000E02080F8141D704702E008C8121F08C1EC
:1018F000002AFAD170477047002001E001C1121F91
:10190000002AFBD1704700002DE9F05F1446524DCC
:101910000246524EA815524FDFF848814FF4007925
:1019200003014FF4005A4FF4804C4FF4004BA9B11F
:1019300001293CD0012A75D0022A7BD0032A70D01D
:10194000042A30D1002261464046FEF7C9FD00223C
:1019500059464046BDE8F05FFEF7C2BD012A0CD0F3
:10196000022A11D0032A16D0042A1CD10122614672
:101970004046FEF7B5FD002227E00122402128461F
:10198000FEF7AEFD00222CE0014601222846FEF7BC
:10199000A7FD002231E0012219464046FEF7A0FDD6
:1019A000002236E04463BDE8F09FC463FBE7012AF0
:1019B00011D0022A1BD0032A25D0042AF3D10022F9
:1019C00061464046FEF78CFD012259464046FEF72F
:1019D00087FD3868E9E7002240212846FEF780FDB0
:1019E000012280212846FEF77BFD3068DDE70146B5
:1019F00000222846FEF774FD012249462846FEF7DC
:101A00006FFD3868CEE7002219464046FEF768FDB4
:101A1000012251464046FEF763FD3068C2E701E00F
:101A200008E010E0002240212846FEF759FD002280
:101A3000802106E0014600222846FEF751FD0022E3
:101A40004946284686E7002219464046FEF748FDEB
:101A5000002251467DE70000001001405C0000209C
:101A60001C000020000C0140FEF74EFDFFF798FC23
:101A7000FFF77AFBFFF7F2FBFFF730FCFFF76EFC96
:101A8000022210491048FFF7C1FA1048FFF781F809
:101A90000F48FFF77EF800210D48FFF799F908215C
:101AA0000B48FFF795F908210848FFF791F9002145
:101AB0000648FFF78DF94FF44871012000F00AF84D
:101AC000FEE70000100000209C0000201C00002009
:101AD0005C00002070B50C460A4605460146012010
:101AE000FFF712FF224629460220FFF70DFF22468C
:101AF00029460320FFF708FF22462946BDE870402B
:101B00000420FFF701BF70B50E46C0F10401044682
:101B10000D4632460120FFF7F7FE3246E11E022055
:101B2000FFF7F2FE294632460320FFF7EDFEE11EE5
:101B30003246BDE870400420FFF7E6BE000000001A
:101B4000000000000102030406070809000000006D
:101B500001020304741B00080000002010000000B4
:101B6000E8180008841B000810000020D0040000C2
:101B7000F81800080100000010000000000000003C
:041B80000024F40049
:0400000508000131BD
:00000001FF
